:020000040800F2
:10000000982500201D020008210200082302000894
:10001000250200082702000829020008000000004D
:100020000000000000000000000000002B0200089B
:100030002D020008000000002F0200083102000815
:10004000031500083302000833020008C547000802
:1000500033020008330200088D3E00083302000816
:10006000D912000801130008291300083302000800
:10007000330200083302000833020008330200088C
:10008000330200083302000833020008330200087C
:10009000330200083302000833020008C3130008CB
:1000A000330200083302000833020008330200085C
:1000B000055F00083D150008C74A00083302000824
:1000C000330200083302000833020008330200083C
:1000D000330200081D0E00084148000833020008E2
:1000E0001D4D0008330200083302000833020008E7
:1000F000330200083302000833020008330200080C
:1001000033020008330200083B17000833020008DE
:1001100033020008330200086F1800083302000899
:1001200033020008330200083302000833020008DB
:1001300000F002F800F05CF80AA090E8000C82449D
:100140008344AAF10107DA4501D100F051F8AFF27A
:10015000090EBAE80F0013F0010F18BFFB1A43F0A5
:1001600001031847847F0000A47F00000A444FF079
:10017000000C10F8013B13F0070408BF10F8014B06
:100180001D1108BF10F8015B641E05D010F8016B4B
:10019000641E01F8016BF9D113F0080F1EBF10F8AF
:1001A000014BAD1C0C1B09D16D1E58BF01F801CBD2
:1001B000FAD505E014F8016B01F8016B6D1EF9D555
:1001C0009142D6D37047000000230024002500266A
:1001D000103A28BF78C1FBD8520728BF30C148BFAA
:1001E0000B6070471FB506F0EEFE1FBD10B510BDC9
:1001F00006F088FA1146FFF7F5FF00F054FB06F011
:10020000A6FA03B4FFF7F2FF03BC06F0ABFA000056
:1002100030BF72B662B680F308887047084800475E
:10022000FEE7FEE7FEE7FEE7FEE7FEE7FEE7FEE7A6
:10023000FEE7FEE703480449044A054B7047000007
:1002400031010008981F00209825002098210020E7
:1002500098210020FE48C068FD494968401AFD49C0
:100260000880FB4801698068081AFB490880F84843
:100270004068FA490880F648C068F9490880F4489F
:100280008068F8490880F2480069F749088070479B
:100290002DE9F041F54F3F78022F77D10027DFF8A5
:1002A000D0C3CCF8B871DFF8CCC3CCF8907101277B
:1002B000CCF890710027CCF890710127DFF8B0C31B
:1002C000CCF8B871DFF8ACC3CCF89071002046E0F0
:1002D000002140E00027DFF89CC3CCF89071E64F86
:1002E000BF68FAB20127CCF8907112020027CCF84F
:1002F0009071E14FBF68FFB23A430127CCF890718B
:10030000D50AC2F3451402F01F062F4665F3DF0736
:100310003D46274664F39F073C46374666F3DF07B2
:100320003E464FF4996705FB07F740F2592C04FB52
:100330000CFC07EB8C0C40F2D31707FB06C74FEA07
:10034000273300EB800C01EB8C1CDFF8308308F8BE
:100350000C3001F10101B1F5A07FBBD3401CF028A6
:10036000B6D34FF48077DFF818C3CCF800700027BD
:10037000DFF8F8C28CF80070C24F3F787F1CDFF8BE
:1003800004C38CF80070B74F388827E02AE0B34FD9
:1003900039881EE000EB800701EB8717DFF8DCC22D
:1003A0001CF80770DFF8BCC2BCF800C0A0EB0C0C56
:1003B000DFF8A082B8F800800CFB081CDFF89C82F4
:1003C000B8F80080ACEB080CDFF8BC8208F80C70C1
:1003D000491CA34F3F88B942DCD3401CA24F3F8841
:1003E000B842D4D3BDE8F081FEB505460021002215
:1003F0000023002401229AE0012190E0501E954E36
:10040000368800FB0610401E9C4E305C8DF80000C4
:10041000501E904E368800FB0610984E305C8DF8CA
:100420000100501E8B4E368800FB0610401C934E78
:10043000305C8DF802008748008802FB0010401EE7
:10044000305C8DF803008348008802FB0010305CAC
:100450008DF804007F48008802FB0010401C305CCF
:100460008DF80500501C7B4E368800FB0610401EA0
:10047000824E305C8DF80600501C764E368800FBAC
:1004800006107E4E305C8DF80700501C714E368889
:1004900000FB0610401C794E305C8DF808007B484C
:1004A00000689DF800607043784E76689DF8017092
:1004B00006FB0700754EB6689DF8027006FB070044
:1004C000724EF6689DF8037006FB07006F4E3669A2
:1004D0009DF8047006FB07006C4E76699DF8057068
:1004E00006FB0700694EB6699DF8067006FB07001B
:1004F000664EF6699DF8077006FB0700634E366A84
:100500009DF8087006FB070083B2C3F30714514837
:10051000008802FB00105C4E3454481C81B24D48E8
:100520000088401E88423FF769AF501C82B24A489B
:100530000088401E90423FF75FAF0120FEBD7EB5B0
:10054000044600230122BDE00121B3E0501E414DCD
:100550002D8800FB0510401E484D285C8DF80000DA
:10056000501E3C4D2D8800FB0510444D285C8DF835
:100570000100501E374D2D8800FB0510401C3F4DDB
:10058000285C8DF802003348008802FB0010401EF2
:10059000285C8DF803002F48008802FB0010285CBF
:1005A0008DF804002B48008802FB0010401C285CDA
:1005B0008DF80500501C274D2D8800FB0510401EAE
:1005C0002E4D285C8DF80600501C224D2D8800FB16
:1005D00005102A4D285C8DF80700501C1D4D2D88F4
:1005E00000FB0510401C254D285C8DF808002848AC
:1005F00000689DF800506843254D6D689DF80160C6
:1006000005FB0600224DAD689DF8026005FB060063
:100610001F4DED689DF8036005FB06001C4D2D691C
:100620009DF8046005FB0600194D6D699DF8056095
:1006300005FB0600164DAD699DF8066005FB06003A
:10064000134DED699DF8076005FB0600104D21E094
:1006500038000020A0040020A2040020A6040020EE
:10066000A8040020AA040020AC040020D10400202B
:100670000000244200802142001001400000056873
:1006800014040140DC04002000000A685804002023
:100690007C0400202D6A9DF8086005FB060083B2EB
:1006A000C3F30713EA48008802FB0010E94D2B54FE
:1006B000481C81B2E6480088401E88423FF746AF9A
:1006C000501C82B2E4480088401E90423FF73CAF85
:1006D00001207EBDFCB50546012155E001224CE01C
:1006E0000124DB48008801FB0020DC4E305C8DF8E3
:1006F0000000D748008801FB0020801E305C8DF888
:100700000100D348008801FB0020401E305C8DF8BA
:100710000200CF48008801FB0020401C305C8DF8AF
:100720000300CB48008801FB0020305C8DF80400FA
:1007300000230DE09DF80000FF2803D01DF8030002
:10074000FF2801D1002405E004B903E0581CC3B21E
:10075000052BEFDB00BF3CB9FF20BD4E368801FB07
:100760000626BC4FB85506E00020B94E368801FB7E
:100770000626B84FB855501C82B2B5480088401EB6
:100780009042ADDC481C81B2B1480088401E8842CE
:10079000A4DC0120FCBD0246002111E0AF48405C12
:1007A000AF4B1B78984205DA0020AA4B5854AB4B4C
:1007B000585404E0FF20A74B5854A84B5854491CE8
:1007C000A3480088A44B1B8858438842E6D80120E0
:1007D00070472DE9F041844600230024002107E002
:1007E000A04800EB8100C078184483B2481C81B255
:1007F000FF2905DC9B4800EB8100C0780028EFD181
:1008000000211BE0974810F8217000EB810042782E
:10081000944800EB81008678924800EB8100C5780F
:100820008B48008802FB0070DFF8288218F800006F
:10083000B04201D1601984B2481C81B2FF2905DCA5
:10084000884800EB8100C0780028DBD16420604339
:1008500090FBF3F0C0B2BDE8F08100217C48008835
:1008600000EB8000400019307A4A11547848008823
:1008700000EB400080001E30115475480088322281
:100880005043AA30734A115471480088AA22504339
:100890002830704A11546E480088C0EB4010400068
:1008A000D2301154704708B500260027092000F007
:1008B00059FAFFF7CFFC4FF4E131482000F0FAFB82
:1008C000482000F0E7F801F071FB05F001FA6648F6
:1008D0008088A0F5D041043905D1F0206249088014
:1008E0004FF4A07048800EE0C82000F004F94FF6E5
:1008F000FF70CE23EF22BE2100903C2002F0ABFF20
:10090000C82000F0F8F804F0BDFE0028ECD15748EC
:10091000007804F056FF5648007804F080FF5548F0
:10092000007804F0B9FF5448007804F0CEFF534833
:10093000007804F0E3FF41F61F41092000F035FE86
:1009400041F61F4142F2107000F0A0FF00F05EFD82
:100950004FF4A073F022AE210A2005F004F8002025
:10096000474908604FF00200464908706FE041486F
:1009700090F80080404807783D4806784248007863
:1009800028B1002000F084FB00203F4908703F4858
:1009900090F8A700374908703C4890F8A8003649FD
:1009A00008703A4890F8A900314908703148007839
:1009B000404507D130480078B84203D10846007856
:1009C000B04212D02B48007804F066FF2A48007825
:1009D00004F07BFF2648007804F021FF254890F8BA
:1009E00000802548077822480678FFF751FCFFF77A
:1009F00034FF042001F0CBF80021084600F0BCFFD2
:100A000000F09DFF002520E000241AE005EB8500A2
:100A100004EB80101149085CC010C00205EB850191
:100A200004EB81110D4A515C891040EA411005EB3D
:100A3000850104EB8111515C40EAE1001449088012
:100A4000641CB4F5A07FE1D36D1CF02DDCD38EE7E0
:100A5000A004002000000A68A2040020000005682D
:100A60005404002054000020D01600203000002044
:100A7000310000203200002033000020340000202C
:100A8000BC012442D1040020D404002090060020A0
:100A90000008006C4FF0E021096921F004014FF0DB
:100AA000E0221161C21700EB5272D2101F4B1A7074
:100AB000194609784FF47A7251431D4A11807047E4
:100AC00001461A4A12784A434FF0E0235A61002245
:100AD0009A6101221A6100BF4FF0E022106910F004
:100AE000010F02D010F4803FF6D000224FF0E02337
:100AF0001A619A61704701460D4A12884A434FF0C5
:100B0000E0235A6100229A6101221A6100BF4FF06E
:100B1000E022106910F0010F02D010F4803FF6D0EF
:100B200000224FF0E0231A619A617047B20400205E
:100B3000B4040020AC4A0A400243AC4B1A60704730
:100B40000146072323EA01021202A84B1B1D186865
:100B50004FF6FF031840A64B18431043A34B1B1D31
:100B6000186070472DE9F0478046894614461D46B7
:100B70002046E11704EB91714FEAA10AE11704EB5B
:100B800091718910A4EB8101CFB2042000EBC70062
:100B9000C7B22846FFF7D4FFC5F1040008FA00F6F3
:100BA0000F20284100EA0900064306F00F06202C1A
:100BB0000CDA904800684FF0010101FA04F140EAB4
:100BC00001004FF0E021C1F800010DE08A48006803
:100BD000A4F120014FF0010202FA01F240EA020002
:100BE0004FF0E021C1F80401844850F82A0006FAC9
:100BF00007F140EA0100814941F82A00BDE8F08789
:100C000070B504460B46CE1701EB9676B010CE17A2
:100C100001EB9676B610A1EB8606B606350E784B3C
:100C20009B6943F00103764EB3614FEAB63353F844
:100C300020300F26AE40B343724E46F82030334684
:100C400053F8203004FA05F633436E4E46F8203050
:100C50006D4B1E6801238B401E436B4B1E6012F0D0
:100C6000010F08D0684B0C331B6801268E403343BC
:100C7000654E0C36336012F0020F08D0624B083319
:100C80001B6801268E4033435F4E0836336070BDCB
:100C900000B500205A490861C8601420486100204E
:100CA0008861C8610846006840F001000860084695
:100CB000406856490840524948600846006854490F
:100CC00008404F4908600846006820F4802008600A
:100CD0000846406820F4FE0048600020886000213B
:100CE0004FF00060FFF726FF00BD10B53F48083009
:100CF000006840F004003D49083108604048C06980
:100D000040F080503E49C8614248406840F48070DD
:100D1000404948600846006840F004000860084602
:100D2000006840F002000860FFF772FA10BD30481A
:100D3000001D2E49091D0860704701464906304ACA
:100D4000926942F001022E4B9A612E4A083A52688B
:100D500022F0E0622B4B083B5A601A4652680A4365
:100D60005A60704730B504460025FFF791FF2448CC
:100D7000006840F480302249086000BF20480068C5
:100D8000400CFBD04FF480601D494860A01EC4B2E7
:100D90000846406840EA844048600846406840F49D
:100DA000803048601C48006840F032001A490860F2
:100DB0001348006840F080701149086000BF104877
:100DC0000068400EFBD00E48406840F002000C491D
:100DD000486005E00A484068C0F3870505F0030550
:100DE000022DF7D130BD000080FFFF1F08ED00E0AD
:100DF0000000FA0500E100E004E100E000E400E0AA
:100E00000010024008000140000401400000FFF80B
:100E1000FFFFF6FE0070004000200240DC48008822
:100E200010F0200F13D0DB48008840280FDAD84894
:100E3000001D0088D8490968D64A12888854D548C8
:100E40000088401CD34908800A20D4490870D04843
:100E5000008810F0800F21D0D1480068D14909687E
:100E600088420DD2D0480068CD490968405CC84925
:100E7000091D0880CA480068401CC94908600DE087
:100E8000C3480C30008820F08000C1490C31088034
:100E9000BF48008820F04000BD490880704710B569
:100EA0000346002002E00C5C1C54401C9042FAD324
:100EB00010BD70B503460C46FF25FF2600220AE050
:100EC000985C80EA0501B948405C80EA0605B848AC
:100ED000465C501CC2B2A242F2DB46EA052070BD5D
:100EE000F0B505460C46A01EC1B22846FFF7E1FF4B
:100EF0000646601E295CA01E285C41EA0027BE420F
:100F000001D10120F0BD0020FCE70020A4490860C9
:100F10009F480C30008840F080009D490C310880CB
:100F2000704730B59C480068C0789B49096889784B
:100F300000EB012085B29848006800789A4909685A
:100F40000870954800684078974909684870924849
:100F500000684078032812D18F4800684079440027
:100F6000914909688C709348411922468E4800685F
:100F7000C01CFFF794FF601D8A49086070E0864836
:100F800000684078062812D18A494819022282490D
:100F90000968091DFFF783FF08227F48016882481E
:100FA0000068FFF77CFF08207E49086058E07A4817
:100FB00000684078102815D17748006884797D4909
:100FC0004819224674490968C91DFFF768FF0622BF
:100FD0007148016874480068FFF761FF0820714993
:100FE00008603DE06C4800684078202838D172489D
:100FF0000088FF2190FBF1F201FB12006A490968A9
:1010000088706D480088FF2190FBF1F066490968FF
:10101000C8706A480088FF2190FBF1F201FB1200C2
:1010200061490968087165480088FF2190FBF1F06B
:101030005D4909684871604800886049098800FB7B
:1010400001F25F4958480068801DFFF728FF5A48A1
:1010500000885A4909884843801D5249086030BDBC
:1010600050480068801EC1B24F480068FFF721FF5A
:1010700004464C480068401E4B4A12681454211222
:1010800048480068801E484A1268115400BFE6E7CD
:1010900030B505463F480088C1B23F480068FFF7B9
:1010A0001FFF044600203B490880FFF73AFFFFF787
:1010B0002CFF30BD2DE9F05F05460E46300105F0EE
:1010C000A7FE81463F4905FB01F005F0A1FE8246DF
:1010D000494605F0BBFD0746384605F079FE84B267
:1010E000204605F095FE8346394605F078FF824696
:1010F0004FF0834105F0A0FE814605F069FE804671
:10110000240104EB080084B22F48806940F00400F9
:101110002D4988610846806940F4804088612B48E9
:10112000006820F47F60294908600846006840F4A0
:101130000B6008602448C06840F480402249C860C1
:101140000846C06820F48040C86011480830048018
:10115000001D008842F20C0108430D490C31088043
:101160000846008840F4807008800846008840F0F7
:10117000200008800846008840F080000880022394
:10118000252203210846FFF7EDFCBDE8F09F000093
:1011900000380140C4040020BC040020B804002032
:1011A000CC040020C8040020C0040020DE70000829
:1011B000DE71000890060020A0040020A204002098
:1011C00000000A6840420F0000100240040801407D
:1011D0003748806940F004003549886108468069D5
:1011E00040F0400088613348006820F00F0031492A
:1011F00008600846006840F0080008602E48006853
:101200002E4908402C490860084600682C490843CC
:101210002949086028480C30006840F01C00264925
:101220000C310860704710B5044614B101202549FF
:1012300008702448007838B32348006848B1234830
:10124000006830B12248006818B1224800680128BF
:101250001AD10A20FFF74FFC00201A4908701A48DB
:10126000006808B9012010BD1848006808B90220BC
:10127000F9E71748006808B90320F4E71548006843
:10128000012813D10420EEE70F48006801280DD192
:101290000E480068012809D10D480068012805D1D1
:1012A0000C48006810B90120064908700020DAE7F0
:1012B000001002400008014000180140FF00F0FF4C
:1012C00000880800D0040020100123420C012342B2
:1012D000080123420001214210B50A20FFF70BFC50
:1012E0005148006838B95148006808B9012000E049
:1012F00000204E4908604FF004004D49086010BDC1
:1013000010B50A20FFF7F7FB4A48006838B94A4889
:10131000006808B9012000E00020474908604FF04C
:1013200008004349086010BD10B50A20FFF7E3FB31
:101330004248006880B93D48006808B9012000E0D3
:1013400000203A4908603E48D0F8940108B90120CD
:1013500000E00020384908604FF010003449086070
:1013600010BD10B5FFF734FF022200210846FFF739
:1013700047FC012202210420FFF742FC0122032145
:101380000420FFF73DFC012204210846FFF738FC4A
:101390000223062203211846FFF7E4FB022308225A
:1013A00019461846FFF7DEFB0223092201211846E1
:1013B000FFF7D8FB02230A2200211846FFF7D2FBD1
:1013C00010BD1B48006810F4807F1AD01D480078BB
:1013D000022816DA1B48007850B900201A49086024
:1013E0004FF001001949C1F898011949086002E05D
:1013F0000020174908601348007800F101001149E6
:1014000008704FF480700A490860704710B50222D6
:1014100008210020FFF7F4FB0223172200210846D1
:10142000FFF7A0FB10BD0000080123429481214278
:10143000140401400C012342940123421001234271
:1014400000002342D10400209881224200802242E1
:101450008C81214245F25552334B1A601A46506036
:1014600091604AF6AA221A604CF6CC421A60704784
:101470004AF6AA202C490860704770B506460C460B
:1014800015462A48C06940F400602849C8612848C8
:1014900000783040264908702648006840EAC510A8
:1014A00024490860084600684FF6807108402149C9
:1014B00008600846006820430860081F00681C494F
:1014C000097808431B49091F08600846006840F076
:1014D000800008600223002203211846FFF742FB28
:1014E00000201449091D0860081F006840F40070BE
:1014F000091F086070BD00F07F010E4A121F1160C5
:10150000704700B50A480078FFF7F5FF0020094949
:10151000091D08600848006808B9012000E00020A3
:101520000549086000BD0000003000400010024086
:10153000D2040020042C004094012342E248008899
:1015400010F0010F2AD0E1480078401CDF490870F4
:10155000084600780A2806DB00200870DC4800787E
:10156000401CDB490870DA4800780A2807DB0020B5
:10157000D7490870D7480078401CD6490870D6482B
:10158000007800280ADDD4480078401ED24908704F
:101590000846007810B90120D0490870CA48008870
:1015A00020F00100C8490880704770B505460C4618
:1015B000CB48C06940F00200C949C861C2481C302C
:1015C0000580001F0480C048001F008840F0010013
:1015D000BD49091F0880BC481038008840F0010050
:1015E000B9491039088002231D2203210120FFF789
:1015F000B9FA70BDBA4AD26942F00202B84BDA6158
:101600001A46926942F008029A61B64A126822F4B8
:101610007002B44B1A601A46126842F430021A6023
:10162000AF4A926942F00102AD4B9A61AE4A5268EC
:1016300022F44062AC4B5A601A46526842F400628F
:101640005A60A14A1C321080121F11809E4A083233
:10165000128842F4E0429C4B08331A801A461288E2
:1016600042F400621A80984A1032128842F0100246
:10167000954B10331A80DA13934B103B1A801A469D
:10168000128842F001021A80704770B504460D4678
:101690009348C06940F008009149C86108468069D4
:1016A00040F0040088619148006820F00F008F49E5
:1016B00008600846006840F0080008608B480C305D
:1016C00000688A490C31086089480480001F058041
:1016D00087481438008840F0010085491439088093
:1016E00008460088088008460088088080480C3832
:1016F00000887F490C3908800846008840F00100C6
:1017000008807B482038008840F002007849203962
:1017100008800846008840F00100088074482C3892
:10172000008840F0010072492C39088002233222DF
:1017300000211846FFF716FA70BD6D491C3908885C
:101740006C49097811F0800F4ED110F0010F1AD0BA
:101750006849097811F0400F15D06649097801F001
:101760003F013F290AD16349097841F08001614A6C
:1017700011704FF6FF71604A118004E05D490978ED
:10178000491C5C4A117010F0020F2DD0594909789C
:1017900011F0400F13D05749097841F08001554AA4
:1017A0001170534908310988534A118050490C3946
:1017B000098821F002014E4A0C3A118014E0002100
:1017C0004C4A11704C4A11804A49097841F0400155
:1017D000484A11700021464A083A1180111F0988B1
:1017E00041F00201121F11800021414A1C3A118070
:1017F00070473B4AD26942F00402394BDA611A461B
:10180000926942F008029A61364A126822F07F42D9
:10181000344B1A601A46126842F096421A60374AF0
:101820001080121F1180354A143A128842F070025B
:10183000324B143B1A801A46128842F008021A8072
:101840002E4A0C3A128842F002022C4B0C3B1A80B2
:101850001A46128842F001021A808022274B2C3B44
:101860001A801A46128842F001021A8070472448F2
:10187000008A10F0010F02D0002022490870204891
:10188000008A20F001001E490882704770B50546A5
:101890000C461348C06940F010001149C86118484F
:1018A00085850485808940F00100154988810846B6
:1018B000008840F001000880022336220321012025
:1018C000FFF750F970BD000010040040D50400205F
:1018D000D6040020D7040020B8040020D40400203F
:1018E00000100240000C01400000014000080140CF
:1018F0002C0C0040D8040020DA0400202C08004002
:1019000000100040DC040020FB4908807047FA49C1
:10191000891C08807047F848801C00887047F64A88
:101920001080921C1180704710B504462046FFF7C6
:10193000EBFF0520FFF7C4F8FFF7EDFF10BDEF4800
:10194000C079ED4908807047EB49891C08807047D1
:1019500030B5014601F01F04C1F34513CA0AE50280
:1019600005EB43151544A8B230BD00BF0100A0F13E
:101970000102D0B2FAD1704710B503460C46DF48D9
:101980008088A0F51341413914D1DC49087AFFF76A
:10199000BBFF1812FFF7BBFFD8B2FFF7B8FFD7495C
:1019A000487AFFF7B1FF2012FFF7B1FFE0B2FFF76F
:1019B000AEFF36E0D1488088A0F5D04104391DD172
:1019C000CE488079012804D1CC480088401EC01A36
:1019D00083B2CA49087AFFF797FF1812FFF797FFFB
:1019E000D8B2FFF794FFC549487AFFF78DFF201260
:1019F000FFF78DFFE0B2FFF78AFF12E0BF48807962
:101A0000012804D1BD480088401EC01A83B2BB49DA
:101A1000087A1946FFF783FFB849487A2146FFF74D
:101A20007EFF10BD2DE9F04105460E46002400273B
:101A3000A046B2480088A84203DDB0484088B042C2
:101A400002DC0020BDE8F08131462846FFF794FF14
:101A5000AA488088A0F51341413905D0A74880885D
:101A6000A0F5D041043903D12E20FFF74DFF02E04D
:101A70002220FFF749FFA1488088A0F513412039B3
:101A800002D10220FFF771FF9B48801C008800B143
:101A900000240220FFF769FF9748801C04889748BC
:101AA0008088A0F51341413909D10220FFF75DFF7D
:101AB0009148801CB0F80080E7B23F0208E08F48F0
:101AC0008088A0F5D041043902D18B48801C04885D
:101AD0008A488088A0F51341253917D08748808827
:101AE000A0F58A41353911D084488088A0F58A4113
:101AF00031390BD081488088A0F50941893905D05A
:101B00007E488088A0F53541053901D1204699E706
:101B10007A488088A0F51341413907D1E012C0020C
:101B2000B91240EA411040EAE8208BE72046FFF76F
:101B30000FFF87E700B571488088A0F51341413950
:101B400005D06E488088A0F5D041043903D1292002
:101B5000FFF7DAFE04E040F273110720FFF7DFFE23
:101B600000BD00B565488088A0F51341413905D016
:101B700062488088A0F5D041043903D12820FFF7BE
:101B8000C3FE03E000210720FFF7C9FE00BD70B5CA
:101B90000446002300265948807901281ED1574861
:101BA0008088A0F5D041043918D0082C15D2DFE880
:101BB00004F00406080A0C0E101206240DE0072497
:101BC0000BE0042409E0052407E0012405E00024DB
:101BD00003E0032401E0022400BF00BF47488088DF
:101BE000A0F51341413905D044488088A0F5D04183
:101BF00004397DD1082C1CD2DFE804F00406090C5E
:101C00000F12151800BF14E043F0800311E043F0F9
:101C100040030EE043F0C0030BE043F0200308E074
:101C200043F0600305E043F0A00302E043F0E0036B
:101C300000BF00BF362643F0080330488088A0F577
:101C4000D041043901D143F0020319463046FFF771
:101C500066FE13F0200F03D12848807901280DD1AA
:101C60002648008825494988884214DA234805888F
:101C7000408822490880084645800CE01F480088BB
:101C80001E494988884206DD1C48058840881B4952
:101C90000880084645801949087AFFF735FE00207C
:101CA000FFF735FE0020FFF732FE14490988491E70
:101CB000C1F30F20FFF72BFE10490988491EC8B257
:101CC000FFF725FE0D49487AFFF71EFE0020FFF7BB
:101CD0001EFE0020FFF71BFE08494988491EC1F37C
:101CE0000F20FFF714FE05494988491EC8B200E0DD
:101CF00006E0FFF70CFE35E0FE07006CD016002072
:101D0000082C1CD2DFE804F004070A0D0F12151886
:101D100043F0300313E043F0100310E043F02003DE
:101D20000DE000BF0BE043F0380308E043F0280368
:101D300005E043F0180302E043F0080300BF00BFD2
:101D4000FE488088A0F50941893904D1112646F260
:101D50004000034302E0032643F480531946304613
:101D6000FFF7DDFD70BD30B504460D46294620461F
:101D7000FFF702FEFFF7E3FDF1480088F149088014
:101D800030BD30B503460C461546EC488088A0F5BA
:101D90001341413914D1E949087AFFF7B5FD18120A
:101DA000FFF7B5FDD8B2FFF7B2FDE449487AFFF777
:101DB000ABFD2012FFF7ABFDE0B2FFF7A8FD36E068
:101DC000DE488088A0F5D04104391DD1DB488079F8
:101DD000012804D1D9480088401EC01A83B2D749CF
:101DE000087AFFF791FD1812FFF791FDD8B2FFF7BF
:101DF0008EFDD249487AFFF787FD2012FFF787FD55
:101E0000E0B2FFF784FD12E0CC488079012804D1CC
:101E1000CA480088401EC01A83B2C849087A1946C9
:101E2000FFF77DFDC549487A2146FFF778FDC34895
:101E3000C079C449891E0880881C058030BD10B552
:101E40000446002C3DD1BD498871F02008804FF434
:101E5000A070488008468088A0F51341413905D01C
:101E6000B6488088A0F5D041043914D12C20B3495C
:101E7000C8712A2008722B20487208468088A0F575
:101E8000D04104395CD14FF4A070AC4908804FF4C4
:101E9000F070488054E0A9488088A0F5094189394C
:101EA00007D12220A549C8714E2008724F204872E0
:101EB00046E02220A149C8712020087221204872E2
:101EC0003EE001209D4988714FF4A0700880F02009
:101ED000488008468088A0F51341413907D12C205D
:101EE0009649C8712A2008722B20487228E093482E
:101EF0008088A0F5D04104390DD12C208F49C871BC
:101F00002B2008722A2048724FF4F07008804FF49A
:101F1000A070488014E089488088A0F5094189397B
:101F200007D122208549C8714F2008724E2048727F
:101F300006E022208149C8712120087220204872C1
:101F40000020FFF724FE10BD70B5044600267B4834
:101F500005884088454379488088A0F5D0410439F8
:101F600016D176488079012812D1002073498871F2
:101F70002A2008722B20487200210846FFF7FCFC3B
:101F800001206E4988712B2008722A20487203E0D4
:101F900000210846FFF7F0FCFFF7D1FC002602E025
:101FA00068480480761CAE42FAD370BD10B566480E
:101FB000406940F48070644948610846806940F097
:101FC000080088610846806940F020008861084662
:101FD000806940F0400088610846806940F4807064
:101FE00088615A48006820F00F0058490860084688
:101FF000006840F0030008605548006855490840F3
:10200000534908600846006853490843504908602E
:10201000081F006800F0FF20091F086008460068DC
:1020200040F0BB1008604D48006800204B49086034
:102030000846006840F0BB300860081F006820F0C8
:102040007040091F08600846006840F03040086092
:102050004348406820F47020414948600846406881
:1020600040F4302048600846006820F00F00086007
:102070000846006840F00B00086000204FF0204147
:102080008861C861374908604FF02040806940F49A
:1020900080504FF0204188610846806940F48040BC
:1020A00088610846806940F0100088610846C06970
:1020B000C8610846C06940F00100C8610846C069AF
:1020C00040F47060C86127480068C1F81C012548C9
:1020D0000068C1F81C010846D0F81C0140F44070AB
:1020E000C1F81C010846806940F0010088614FF08A
:1020F0003200FEF700FD01210020FFF710FC322026
:10210000FEF7F9FC0020FFF70FFC0C498880084619
:102110008088FF280ADB08468088A0F57F41FF39C8
:1021200004D006488088B0F5134F5CD1D320FFF768
:10213000EBFBFFF7F0FBFFF7EEFB15E0D0160020FE
:10214000DE0400200008006C00100240000C01407A
:102150000414014000F0FF00BB0B00BB0418014059
:10216000002001401C0100A0FFF7D5FBFE4988803C
:10217000084680880006000C8880FFF7CCFBFA49EF
:1021800089880843F849888008468088A0F513416B
:10219000413918D0BF20FFF7B7FBFFF7BCFBFFF7B3
:1021A000BAFBFFF7B8FBFFF7B6FBEF49888008469C
:1021B00080880006000C8880FFF7ADFBEA4989881B
:1021C0000843E9498880E8488088A0F513414139EF
:1021D00009D0E5488088A0F5D041043903D049F200
:1021E0004130E1498880E0488088A0F513414139B9
:1021F0007ED1CF20FFF788FB0020FFF788FBC120AE
:10220000FFF785FB3020FFF782FBED20FFF77CFB1B
:102210006420FFF77CFB0320FFF779FB1220FFF718
:1022200076FB8120FFF773FBE820FFF76DFB85202D
:10223000FFF76DFB1020FFF76AFB7A20FFF767FBC3
:10224000CB20FFF761FB3920FFF761FB2C20FFF764
:102250005EFB0020FFF75BFB3420FFF758FB0220FA
:10226000FFF755FBF720FFF74FFB2020FFF74FFB51
:10227000EA20FFF749FB0020FFF749FB0020FFF7AA
:1022800046FBC020FFF740FB1B20FFF740FBC120AF
:10229000FFF73AFB0120FFF73AFBC520FFF734FBBD
:1022A0003020FFF734FB3020FFF731FBC720FFF76A
:1022B0002BFBB720FFF72BFB3620FFF725FB482031
:1022C000FFF725FB3A20FFF71FFB5520FFF71FFB09
:1022D000B120FFF719FB0020FFF719FB1A20FFF7C9
:1022E00016FBB620FFF710FB0A20FFF710FB00E0FB
:1022F00097E0A220FFF70BFBF220FFF705FB002081
:10230000FFF705FB2620FFF7FFFA0120FFF7FFFA92
:10231000E020FFF7F9FA0F20FFF7F9FA2A20FFF77C
:10232000F6FA2820FFF7F3FA0820FFF7F0FA0E205C
:10233000FFF7EDFA0820FFF7EAFA5420FFF7E7FA73
:10234000A920FFF7E4FA4320FFF7E1FA0A20FFF79C
:10235000DEFA0F20FFF7DBFA0020FFF7D8FA0020A3
:10236000FFF7D5FA0020FFF7D2FA0020FFF7CFFAE7
:10237000E120FFF7C9FA0020FFF7C9FA1520FFF79F
:10238000C6FA1720FFF7C3FA0720FFF7C0FA11209B
:10239000FFF7BDFA0620FFF7BAFA2B20FFF7B7FACE
:1023A0005620FFF7B4FA3C20FFF7B1FA0520FFF7FB
:1023B000AEFA1020FFF7ABFA0F20FFF7A8FA3F2084
:1023C000FFF7A5FA3F20FFF7A2FA0F20FFF79FFAC9
:1023D0002B20FFF799FA0020FFF799FA0020FFF76A
:1023E00096FA0120FFF793FA3F20FFF790FA2A2090
:1023F000FFF78AFA0020FFF78AFA0020FFF787FA32
:102400000020FFF784FAEF20FFF781FA1120FFF791
:102410007BFA7820FEF76FFB2920FFF775FA01F0B1
:102420000FBA51488088A0F5D04104397ED11120DF
:10243000FFF76AFA1420FEF75EFBD020FFF764FA7C
:102440000720FFF764FA4220FFF761FA1D20FFF72B
:102450005EFAD120FFF758FA0020FFF758FA1A2049
:10246000FFF755FA0920FFF752FAD220FFF74CFA8E
:102470000120FFF74CFA2220FFF749FAC020FFF7AE
:1024800043FA1020FFF743FA3B20FFF740FA002001
:10249000FFF73DFA0220FFF73AFA1120FFF737FA6B
:1024A000C520FFF731FA0320FFF731FAC820FFF704
:1024B0002BFA0020FFF72BFA2520FFF728FA21201E
:1024C000FFF725FA0520FFF722FA0020FFF71FFA91
:1024D0000A20FFF71CFA6520FFF719FA2520FFF7FD
:1024E00016FA7720FFF713FA5020FFF710FA0F20A3
:1024F000FFF70DFA0020FFF70AFAF820FFF704FAB9
:102500000120FFF704FAFE20FFF7FEF90020FFF795
:10251000FEF90220FFF7FBF92020FFF7F5F936203E
:10252000FFF7F2F90820FFF7F2F900E02DE03A207A
:10253000FFF7EAF95520FFF7EAF92B20FFF7E4F956
:102540000020FFF7E4F90020FFF7E1F90120FFF791
:10255000DEF93F20FFF7DBF92A20FFF7D5F900204D
:10256000FFF7D5F9002001E0D0160020FFF7CFF9E2
:102570000120FFF7CCF9DF20FFF7C9F97820FEF73B
:10258000BAFA2920FFF7C0F949E7FE488088A0F58C
:10259000134125397ED147F6F001E520FFF7BFF959
:1025A0004FF480710120FFF7BAF94FF4E061022087
:1025B000FFF7B5F941F230010320FFF7B0F9002130
:1025C0000420FFF7ACF940F202210820FFF7A7F939
:1025D00000210920FFF7A3F900210A20FFF79FF946
:1025E00000210C20FFF79BF900210D20FFF797F940
:1025F00000210F20FFF793F900211020FFF78FF93A
:1026000007211120FFF78BF900211220FFF787F92E
:1026100000211320FFF783F900210720FFF77FF93E
:1026200041F290611020FFF77AF940F22721112042
:10263000FFF775F99D211220FFF771F94FF4C8518A
:102640001320FFF76CF925212920FFF768F90D21E8
:102650002B20FFF764F907213020FFF760F940F2E3
:1026600003313120FFF75BF903213220FFF757F9DF
:1026700040F206213520FFF752F908213620FFF7F6
:102680004EF940F206413720FFF749F94FF4417106
:10269000382000E057E0FFF742F907213920FFF723
:1026A0003EF940F202613C20FFF739F908213D2054
:1026B000FFF735F900215020FFF731F9EF215120C4
:1026C000FFF72DF900215220FFF729F940F23F11C1
:1026D0005320FFF724F94FF427416020FFF71FF93B
:1026E00001216120FFF71BF900216A20FFF717F98C
:1026F00000218020FFF713F900218120FFF70FF957
:1027000000218220FFF70BF900218320FFF707F952
:1027100000218420FFF703F900218520FFF7FFF84F
:1027200010219020FFF7FBF84FF4C0619220FFF7D3
:10273000F6F840F233110720FFF7F1F822210020CC
:10274000FFF7EDF86BE68F488088A0F51341283934
:102750007ED141F28F01EC20FFF7E1F841F2342104
:10276000EF20FFF7DCF84FF480710120FFF7D7F876
:102770004FF4E0610220FFF7D2F841F2300103206C
:10278000FFF7CDF800210420FFF7C9F840F202213D
:102790000820FFF7C4F800210920FFF7C0F8002146
:1027A0000A20FFF7BCF801210C20FFF7B8F8002140
:1027B0000D20FFF7B4F800210F20FFF7B0F800213B
:1027C0001020FFF7ACF807211120FFF7A8F800212F
:1027D0001220FFF7A4F800211320FFF7A0F8012131
:1027E0000720FFF79CF83220FEF785F941F290416F
:1027F0001020FFF794F840F227211120FFF78FF8FF
:102800003220FEF778F98A211220FFF788F832206B
:10281000FEF771F94FF4D0511320FFF780F806212D
:102820002920FFF77CF80D212B20FFF778F83220C4
:10283000FEF761F900212020FFF771F80021212027
:10284000FFF76DF83220FEF756F90021302000E046
:1028500074E0FFF764F840F204613120FFF75FF89D
:1028600040F205313220FFF75AF800213520FFF7FA
:1028700056F840F609413620FFF751F84FF4017140
:102880003720FFF74CF840F201313820FFF747F8C6
:1028900040F207713920FFF742F800213C20FFF792
:1028A0003EF840F60A213D20FFF739F83220FEF7C6
:1028B00022F900215020FFF732F8EF215120FFF7D5
:1028C0002EF800215220FFF72AF840F23F11532042
:1028D000FFF725F84FF427416020FFF720F801218A
:1028E0006120FFF71CF800216A20FFF718F800218B
:1028F0008020FFF714F800218120FFF710F8002155
:102900008220FFF70CF800218320FFF708F8002150
:102910008420FFF704F800218520FFF700F810213C
:102920009020FEF7FCFF4FF4C0619220FEF7F7FF06
:1029300040F233110720FEF7F2FF70E5114880885E
:10294000A0F5134120397DD10846FEF7E8FF4FF48A
:1029500080710120FEF7E3FF4FF4E0610220FEF7F3
:10296000DEFF41F230010320FEF7D9FF00210420F1
:10297000FEF7D5FF40F202210820FEF7D0FF00212C
:10298000092001E0D0160020FEF7C9FF00210A202F
:10299000FEF7C5FF01210C20FEF7C1FF00210D202D
:1029A000FEF7BDFF00210F20FEF7B9FF3220FEF732
:1029B000A2F840F201110720FEF7B1FF3220FEF726
:1029C0009AF84FF486511020FEF7A9FF0721112035
:1029D000FEF7A5FF4FF488711220FEF7A0FF4FF419
:1029E00030611320FEF79BFF00212920FEF797FF9F
:1029F00044F210012B20FEF792FF00215020FEF739
:102A00008EFFEF215120FEF78AFF00215220FEF7B2
:102A100086FF40F23F115320FEF781FF4FF41C5117
:102A20006020FEF77CFF01216120FEF778FF002186
:102A30006A20FEF774FF00218020FEF770FF00215E
:102A4000812000E030E0FEF76AFF00218220FEF7DF
:102A500066FF00218320FEF762FF00218420FEF73D
:102A60005EFF00218520FEF75AFF10219020FEF71F
:102A700056FF00219220FEF752FF01219320FEF71E
:102A80004EFF4FF488719520FEF749FF00219720F3
:102A9000FEF745FF00219820FEF741FF40F2731139
:102AA0000720FEF73CFFBAE4FE488088A0F51341FA
:102AB00031397DD141F21401E720FEF730FF4FF4A8
:102AC00080710120FEF72BFF4FF400710220FEF70A
:102AD00026FF41F238010320FEF721FF40F20221D8
:102AE0000820FEF71CFF00210920FEF718FF002137
:102AF0000A20FEF714FF00210C20FEF710FF002132
:102B00000D20FEF70CFF00210F20FEF708FF00212B
:102B10001020FEF704FF07211120FEF700FF00211F
:102B20001220FEF7FCFE00211320FEF7F8FEC8205D
:102B3000FDF7E1FF41F290611020FEF7F0FE40F258
:102B400027211120FEF7EBFE3220FDF7D4FF0C21E8
:102B50001220FEF7E4FE3220FDF7CDFF4FF40061B6
:102B60001320FEF7DCFE11212920FEF7D8FE0B21F1
:102B70002B20FEF7D4FE3220FDF7BDFF00212020E0
:102B8000FEF7CDFE40F23F112120FEF7C8FE0021E6
:102B90003020FEF7C4FE4FF483713120FEF7BFFEF4
:102BA00000213220FEF7BBFE4FF40171352000E01A
:102BB00064E0FEF7B4FE41F20A613620FEF7AFFE94
:102BC00040F207713720FEF7AAFE4FF483713820D8
:102BD000FEF7A5FE40F207713920FEF7A0FE40F295
:102BE00002413C20FEF79BFE40F60F413D20FEF7E0
:102BF00096FE00215020FEF792FEEF215120FEF7B5
:102C00008EFE00215220FEF78AFE40F23F11532033
:102C1000FEF785FE4FF41C516020FEF780FE012177
:102C20006120FEF77CFE00216A20FEF778FE00217D
:102C30008020FEF774FE00218120FEF770FE002147
:102C40008220FEF76CFE00218320FEF768FE002143
:102C50008420FEF764FE00218520FEF760FE10212F
:102C60009020FEF75CFE4FF4C0619220FEF757FE05
:102C700040F233110720FEF752FE85E48948808830
:102C8000A0F5A84108397DD14FF480710120FEF7ED
:102C900046FE4FF4E0610220FEF741FE41F23001B2
:102CA0000320FEF73CFE00210420FEF738FE40F230
:102CB00007210820FEF733FE00210920FEF72FFE32
:102CC00000210A20FEF72BFE00210C20FEF727FE34
:102CD00000210D20FEF723FE00210F20FEF71FFE2E
:102CE0001420FDF708FF41F2B0611020FEF717FE37
:102CF00001211120FEF713FE01211720FEF70FFE20
:102D00004FF49C711220FEF70AFE4FF4006113206D
:102D1000FEF705FE09212920FEF701FE09212A20E0
:102D2000FEF7FDFD0021A420FEF7F9FD0021502053
:102D3000FEF7F5FDEF215120FEF7F1FD00215220B5
:102D4000FEF7EDFD40F23F115320FEF7E8FD4FF492
:102D50001C516020FEF7E3FD01216120FEF7DFFD3D
:102D600000216A20FEF7DBFD00218020FEF7D7FD61
:102D700000218120FEF7D3FD00218220FEF7CFFD48
:102D8000002100E024E08320FEF7C9FD002184201B
:102D9000FEF7C5FD00218520FEF7C1FD132190201F
:102DA000FEF7BDFD00219220FEF7B9FD032193201F
:102DB000FEF7B5FD4FF488719520FEF7B0FD40F2A7
:102DC00073110720FEF7ABFD3220FDF794FEB9E446
:102DD00034488088A0F5A851053965D10720FEF751
:102DE0009EFD3220FDF787FE4FF48E711220FEF714
:102DF00096FD0121A420FEF792FD0F210820FEF789
:102E00008EFD08210A20FEF78AFD08210D20FEF71D
:102E100086FD40F207713020FEF781FD0721312049
:102E2000FEF77DFD40F203613220FEF778FD4FF49E
:102E3000E0613320FEF773FD40F202213420FEF7FB
:102E40006EFD02213520FEF76AFD41F60F71362036
:102E5000FEF765FD40F207713720FEF760FD0021A7
:102E60003820FEF75CFD00213920FEF758FD40F2C6
:102E700007713A20FEF753FD00213B20FEF74FFD7E
:102E800007213C20FEF74BFD00213D20FEF747FDCA
:102E90003220FDF730FE01210720FEF740FD012121
:102EA000172002E0D0160020AEE0FEF738FD3220F9
:102EB000FDF721FE4FF4BD511020FEF730FD40F22A
:102EC00017211120FEF72BFD4FF48F711220FEF712
:102ED00026FD4FF470611320FEF721FD00212A200A
:102EE000FEF71DFD0A212920FEF719FD4FF49F7101
:102EF0001220FEF714FD00215020FEF710FDEF21F7
:102F00005120FEF70CFD00215220FEF708FD40F293
:102F10003F115320FEF703FD4FF41C516020FEF7D4
:102F2000FEFC01216120FEF7FAFC00216A20FEF779
:102F3000F6FC00218020FEF7F2FC00218120FEF744
:102F4000EEFC00218220FEF7EAFC00218320FEF740
:102F5000E6FC00218420FEF7E2FC00218520FEF73C
:102F6000DEFC13219020FEF7DAFC4FF44071922032
:102F7000FEF7D5FC05219320FEF7D1FC002195201A
:102F8000FEF7CDFC00219720FEF7C9FC0021982018
:102F9000FEF7C5FC4FF480710120FEF7C0FC4FF432
:102FA000E0610220FEF7BBFC41F238010320FEF78E
:102FB000B6FC00210420FEF7B2FC00210C20FEF735
:102FC000AEFC00210F20FEF7AAFC00212020FEF716
:102FD000A6FC00212120FEF7A2FC21210720FEF7FC
:102FE0009EFC1420FDF787FD61210720FEF797FC6A
:102FF0001420FDF780FD40F273110720FEF78FFCCF
:103000001420FDF778FD98E4FE488088A0F535414E
:1030100005397DD10846FEF782FC00210846FEF7FF
:103020007EFC00210846FEF77AFC00210846FEF7E8
:1030300076FC0121A420FEF772FC1420FDF75BFD55
:103040004FF41C516020FEF76AFC40F20221082078
:10305000FEF765FC4FF405713020FEF760FC43F28B
:1030600015713120FEF75BFC40F204613220FEF75F
:1030700056FC40F616613320FEF751FC42F2112156
:103080003420FEF74CFC4FF4A8513520FEF747FCE6
:1030900048F207513620FEF742FC41F20741372043
:1030A000FEF73DFC41F203413820FEF738FC2021B9
:1030B0003920FEF734FC1A219020FEF730FC002165
:1030C0001020FEF72CFC07211120FEF728FC002120
:1030D0001220FEF724FC00211320FEF720FC142010
:1030E000FDF709FD4FF4E6611020FEF718FC40F2F1
:1030F00037111120FEF713FC1420FDF7FCFC4FF4F0
:10310000DC711220FEF70BFC1420FDF7F4FC00E04C
:1031100083E04FF470611320FEF701FC80212A2028
:10312000FEF7FDFB48212920FEF7F9FB1420FDF7EF
:10313000E2FC4FF480710120FEF7F1FB4FF4E061F7
:103140000220FEF7ECFB41F238010320FEF7E7FB1B
:1031500040F202210820FEF7E2FB00210A20FEF7E0
:10316000DEFB00210C20FEF7DAFB00210D20FEF72C
:10317000D6FB30210E20FEF7D2FB00215020FEF7B7
:10318000CEFBEF215120FEF7CAFB00215220FEF7B3
:10319000C6FB40F23F115320FEF7C1FB4FF41C5118
:1031A0006020FEF7BCFB01216120FEF7B8FB002187
:1031B0006A20FEF7B4FB11219020FEF7B0FB4FF41C
:1031C000C0619220FEF7ABFB40F202419320FEF774
:1031D000A6FB02219420FEF7A2FB1420FDF78BFC36
:1031E00001210720FEF79BFB1420FDF784FC6121E1
:1031F0000720FEF794FB40F273110720FEF78FFBC8
:1032000000212020FEF78BFB00212120FEF787FB09
:1032100022210020FEF783FB12E37A488088A0F584
:10322000454105397DD10846FEF779FB0021084666
:10323000FEF775FB1420FDF75EFC00210846FEF743
:103240006EFB00210846FEF76AFB00210846FEF7E8
:1032500066FB00210846FEF762FB0121A420FEF771
:103260005EFB1420FDF747FC4FF41C516020FEF775
:1032700056FB40F606010820FEF751FB40F20371B1
:103280003020FEF74CFB01213120FEF748FB0421E2
:103290003220FEF744FB4FF481713320FEF73FFBF1
:1032A0004FF440713420FEF73AFB40F20311352011
:1032B000FEF735FB1F213620FEF731FB40F203718C
:1032C0003720FEF72CFB01213820FEF728FB0421D4
:1032D0003920FEF724FB15219020FEF720FB4FF448
:1032E00082611020FEF71BFB40F247211120FEF700
:1032F00016FB4FF4DE711220FEF711FB4FF46061F4
:103300001320FEF70CFB7820FDF7F5FB4FF48071DE
:103310000120FEF704FB4FF400710220FEF7FFFAD4
:1033200000E050E041F230010320FEF7F8FA0821F6
:103330000A20FEF7F4FA00210C20FEF7F0FA202113
:103340000E20FEF7ECFA00210F20FEF7E8FA00212C
:103350002020FEF7E4FA00212120FEF7E0FA3D21CB
:103360002A20FEF7DCFA1420FDF7C5FB2D212920C9
:10337000FEF7D5FA00215020FEF7D1FA4DF2EF0109
:103380005120FEF7CCFA00215220FEF7C8FA40F295
:103390003F115320FEF7C3FA00216120FEF7BFFA68
:1033A00000216A20FEF7BBFA4FF440719220FEF72D
:1033B000B6FA05219320FEF7B2FA4FF48071072088
:1033C000FEF7ADFA3CE20F488088A0F50941893943
:1033D0007ED101210020FEF7A2FA4AF6A4010320C3
:1033E000FEF79DFA00210C20FEF799FA40F60C0139
:1033F0000D20FEF794FA4FF42C510E20FEF78FFAB1
:10340000B02101E0D01600201E20FEF788FA42F617
:103410003F310120FEF783FA4FF4C0610220FEF72E
:103420007EFA00211020FEF77AFA46F27801112088
:10343000FEF775FA00210520FEF771FA002106203B
:10344000FEF76DFA4EF61C711620FEF768FA03219E
:103450001720FEF764FA40F233210720FEF75FFAE7
:1034600000210B20FEF75BFA00210F20FEF757FA30
:1034700000214120FEF753FA00214220FEF74FFAC7
:1034800000214820FEF74BFA40F23F114920FEF799
:1034900046FA00214A20FEF742FA00214B20FEF7AF
:1034A0003EFA4FF46F414420FEF739FA00214520DF
:1034B000FEF735FA40F23F114620FEF730FA40F2AF
:1034C00007713020FEF72BFA4FF40171312000E034
:1034D0003FE0FEF724FA4FF401713220FEF71FFAA5
:1034E00040F202513320FEF71AFA40F2075134201D
:1034F000FEF715FA4FF401713520FEF710FA4FF47C
:1035000001713620FEF70BFA40F202513720FEF728
:1035100006FA40F202313A20FEF701FA40F2023197
:103520003B20FEF7FCF900212320FEF7F8F90021EB
:103530002420FEF7F4F94FF400412520FEF7EFF9BF
:1035400000214F20FEF7EBF900214E20FEF7E7F9AE
:1035500076E1F7488088A0F58A4131397ED1012192
:103560000020FEF7DCF90A20FDF7C5FA41F22861D8
:103570001020FEF7D4F90E211220FEF7D0F940F604
:1035800039211320FEF7CBF90A20FDF7B4FA4021C8
:103590001120FEF7C4F950211520FEF7C0F90A20CA
:1035A000FDF7A9FA1E211220FEF7B9F90A20FDF74E
:1035B000A2FA4FF4B1511020FEF7B1F942F63921C9
:1035C0001320FEF7ACF90A20FDF795FA4FF480714D
:1035D0000120FEF7A4F94FF440710220FEF79FF995
:1035E00041F238010320FEF79AF940F20221082047
:1035F000FEF795F908210A20FEF791F90021302005
:10360000FEF78DF940F202413120FEF788F94FF4C0
:1036100083713220FEF783F940F203513320FEF725
:103620007EF94FF482713420FEF779F940F20131CE
:103630003520FEF774F940F207713620FEF76FF976
:1036400040F205313720FEF76AF94FF40271382055
:10365000FEF765F940F60B71392000E03BE0FEF71C
:103660005EF902214120FEF75AF94FF41C51602007
:10367000FEF755F901216120FEF751F94FF404716D
:103680009020FEF74CF94FF485719220FEF747F930
:1036900004219320FEF743F94FF48071A020FEF738
:1036A0003EF901210720FEF73AF921210720FEF714
:1036B00036F923210720FEF732F933210720FEF7E0
:1036C0002EF940F233110720FEF729F90021A0203E
:1036D000FEF725F9B4E096488088A0F58A4135398F
:1036E000F8D130211520FEF71AF910219A20FEF7A3
:1036F00016F920211120FEF712F943F2284110207B
:10370000FEF70DF902211220FEF709F941F2380106
:103710001320FEF704F92820FDF7EDF912210846E1
:10372000FEF7FDF82820FDF7E6F943F220411020CE
:10373000FEF7F5F843F238011320FEF7F0F84620C3
:10374000FDF7D9F900213020FEF7E9F840F20241F7
:103750003120FEF7E4F840F207313220FEF7DFF8BF
:103760004FF441713320FEF7DAF804213420FEF7DC
:10377000D6F840F201413520FEF7D1F840F207714A
:103780003620FEF7CCF840F205313720FEF7C7F8B7
:103790004FF4C2613820FEF7C2F84FF4C2613920FD
:1037A000FEF7BDF84FF480710120FEF7B8F84FF432
:1037B00040710220FEF7B3F841F230010320FEF71A
:1037C000AEF840F608010820FEF7A9F808210A2003
:1037D000FEF7A5F84FF41C516020FEF7A0F8012178
:1037E0006120FEF79CF84FF49F719020FEF797F848
:1037F0004FF480719220FEF792F84FF4807193207D
:10380000FEF78DF84FF44051A020FEF788F8102104
:10381000A320FEF784F801210720FEF780F821217C
:103820000720FEF77CF823210720FEF778F83321E4
:103830000720FEF774F840F233110720FEF76FF807
:103840000020FEF7FCFA01203A4908604FF6FF70AD
:10385000FEF77AFB10BD2DE9FC4F05460E461746D4
:103860009846DDF82C900020019031488088A0F522
:10387000D041043929D12E488079012825D1AB4681
:1038800035462B480088C01B401E86B24746284854
:103890000088A0EB0B00401E1FFA80F8002024498E
:1038A00088712A2008722B20487243463A463146D6
:1038B0002846CDF80090FFF7CEFF01201C49887103
:1038C0002B2008722A2048721CE0781B401C80B212
:1038D0000190344614E021462846FEF74DF8FEF7E5
:1038E0002EF84FF0000A06E04846FEF710F80AF1FD
:1038F00001001FFA80FA01988245F5DB601C84B252
:103900004445E8DDBDE8FC8F2DE9F84F07460D463C
:1039100090469946DDF828B0A8EB0700401C80B21D
:103920000090A9EB0500401C1FFA80FA002419E062
:10393000D016002080812142281981B23846FEF736
:103940001BF8FDF7FCFF002607E004FB0A603BF8CC
:103950001000FE490880701C86B200988642F4DB95
:10396000601C84B25445E7DBBDE8F88F2DE9FF4FBA
:1039700084B081468A460020039002900698A0EB0E
:1039800009050798A0EB0A06CDF80490CDF800A031
:10399000002D01DD012705E00DB9002702E04FF001
:1039A000FF376D42002E02DD4FF0010806E016B928
:1039B0004FF0000802E04FF0FF387642B54201DDDB
:1039C0002C4600E034464FF0000B21E0009881B215
:1039D000019880B2FEF7C7F9039828440390029833
:1039E000304402900398A04205DD0398001B039029
:1039F0000198384401900298A04205DD0298001B0E
:103A000002900098404400900BF101001FFA80FBE7
:103A1000601C8345DADD08B0BDE8F08FF0B50446E0
:103A20000D4616461F462B46324629462046FFF7CE
:103A30009DFF3B46224629462046FFF797FF3B461F
:103A4000324639462046FFF791FF3B46324629462B
:103A50003046FFF78BFFF0BD2DE9F04306460F46D9
:103A60009046002445460320A0EB48093CE07A1B21
:103A700091B2321990B2FEF776F93A1B91B27219EF
:103A800090B2FEF770F93A1991B2721990B2FEF73E
:103A90006AF97A1991B2321990B2FEF764F97A197B
:103AA00091B2321B90B2FEF75EF93A1991B2721BD5
:103AB00090B2FEF758F97A1B91B2321B90B2FEF722
:103AC00052F93A1B91B2721B90B2FEF74CF9641C8A
:103AD000B9F1000F03DAA000801D814404E0601BEF
:103AE00080000A3081446D1EAC42C0DDBDE8F08329
:103AF0002DE9F84F05460F4690461E46009794481C
:103B0000B0F80090A8F1200000F0FF080A98002803
:103B10004ED1002449E00C2E07D108EB48008D4916
:103B200001EB800010F804A004E08B4800EB0810C3
:103B300010F804A04FF0000B31E01AF0800F03D012
:103B40008348A0F8009003E08448008880490880FA
:103B500039462846FEF707F94FEA4A604FEA106AED
:103B6000781C87B27E480088A84204DC7848A0F818
:103B70000090BDE8F88F0098381AB0420BD1009F32
:103B8000681C85B276480088A84203DC7048A0F81B
:103B90000090EEE706E00BF1010000F0FF0BBBF137
:103BA000080FCADB00BF601CC4B2B442B3DB44E000
:103BB000002440E00C2E07D108EB4800654901EBDA
:103BC000800010F804A004E0634800EB081010F82F
:103BD00004A04FF0000B28E01AF0800F03D0394604
:103BE0002846FEF7C0F84FEA4A604FEA106A781C90
:103BF00087B25B484088A84203DC5548A0F8009093
:103C0000B7E70098381AB0420BD1009F681C85B204
:103C100053480088A84203DC4D48A0F80090A8E76C
:103C200006E00BF1010000F0FF0BBBF1080FD3DB46
:103C300000BF601CC4B2B442BCDB4548A0F8009091
:103C400000BF96E710B50246012000E050430B008C
:103C5000A1F10104E1B2F9D110BD2DE9FF4F81B00E
:103C6000074691461E460E9D4FF0000A002439E09B
:103C7000301B401EC1B20A20FFF7E4FFB9FBF0F091
:103C80000A21B0FBF1F201FB1208BAF1000F16D1C4
:103C9000701EA04213DDB8F1000F0ED10020AB461C
:103CA00005EBDB71491001FB0471009088B22B46D3
:103CB00020220299FFF71CFF12E04FF0010A0020BA
:103CC000AB4605EBDB71491001FB0471009088B233
:103CD0002B4608F13001CAB20299FFF709FF00BF75
:103CE000601CC4B2B442C3DB05B0BDE8F08F2DE95F
:103CF000FF4F82B0064692461F46DDE90F4800207E
:103D0000019000255BE0781B401EC1B20A20FFF73E
:103D100099FFBAFBF0F00A21B0FBF1F201FB1209A6
:103D20000198A8BB781EA84235DDB9F1000F30D14B
:103D300018F0800F1CD008F00100A34604EBDB71E3
:103D4000491001FB0561009088B20BE00008006C8F
:103D5000DE040020DE72000852770008E004002034
:103D6000D0160020234630220399FFF7C1FE0EE053
:103D700008F00100A34604EBDB71491001FB05616B
:103D8000009088B2234620220399FFF7B1FE14E089
:103D900001E00120019008F00100A34604EBDB7173
:103DA000491001FB0561009088B2234609F13001FA
:103DB000CAB20399FFF79CFE00BF681CC5B2BD42A2
:103DC000A1DB06B0BDE8F08F2DE9F84704460D46AB
:103DD00090469946DDE9096704F0FF0A08EB040004
:103DE0001FFA80F809EB05001FFA80F916E0444538
:103DF00002DB5446A81985B24D4500DB14E00020D3
:103E000000903A78334629462046FFF771FE304647
:103E100006EBD07104EB61018CB27F1C38787E28F0
:103E200002DC38782028E2DA00BFBDE8F88700001D
:103E300010B52F48C06840F4FE702D49C860FCF7EB
:103E400054FF10BD70B500250024002029490860EA
:103E50001BE02948006818B1681CC5B2002409E0BD
:103E6000601CC4B2032C05DD0120224908604FF01C
:103E7000000070BD1E20FCF73EFE642D05DB002017
:103E80001C4908604FF00100F3E7E2E710B501209C
:103E90001A490860FFF7D6FF08B1FFF7C9FF10BD48
:103EA00010B51348806940F0040011498861084644
:103EB000806940F0010088611148006820F00F001F
:103EC0000F4908600846006840F0080008600222B8
:103ED00000210846FCF794FEFFF7B4FF08B9FCF791
:103EE00004FF0223062219461846FCF73BFE10BDCC
:103EF000001002409481214200012142140401403B
:103F0000000801402C48806940F004002A4988617B
:103F10000846C06940F00050C8612848006820F495
:103F20007020264908600846006808602448006838
:103F300040F00100224908600846006840F0020095
:103F4000086008460068086008460068086008467F
:103F50000068086008460068086008460068086055
:103F6000002017490831086070472DE9F047804666
:103F7000404602F04DFF81461249484602F066FE77
:103F800081464FF08B41484602F056FF824602F0D0
:103F9000CFFD06464FF066320B4B02F01DFC044687
:103FA00002F0E8FB8146484602F012FF044908315E
:103FB0000860BDE8F08700000010024000080140E2
:103FC0000074004000007A4466660A4097488069A1
:103FD00040F00800954988619548006820F47F40CA
:103FE000934908600846006840F44C5008609048C7
:103FF0000830006840F440608D490831086070471F
:1040000010B58B48006820F4704089490860084664
:10401000006840F4405008600120864908608649E5
:10402000C1F8A8014FF00400FCF74AFD00208149C7
:1040300008604FF00400FCF743FD00207E49C1F802
:10404000A80110BD10B57A48006820F47040784986
:1040500008600846006840F4405008600020774936
:1040600008607549C1F8AC014FF00400FCF728FD69
:104070000120724908607049C1F8AC014FF004009A
:10408000FCF71EFD10BD10B500246948006820F43F
:104090007040674908600846006840F400400860C6
:1040A000012064490860FCF70BFD01206249C1F85A
:1040B000A801FCF705FD07E0601CC4B2FA2C03DD83
:1040C000FFF7C0FF012010BD5D4800680028F3D154
:1040D0005A49086000BFF6E710B50020574908604C
:1040E0005348006820F47040514908600846006851
:1040F00040F4405008604FF000004F49C1F8AC0157
:104100004FF00200FCF7DCFC01204C4908604FF046
:104110000200FCF7D5FC00204749C1F8A80110BDFA
:1041200010B50020454908604148006820F47040FF
:104130003F4908600846006840F4405008604FF06E
:1041400001003D49C1F8AC014FF00200FCF7B8FC9A
:1041500001203A4908604FF00200FCF7B1FC002052
:104160003549C1F8A80110BD70B504463048006853
:1041700020F470402E4908600846006840F4405022
:10418000086000202D49086005461AE0E009294929
:1041900008604FEA44604FEA10644FF00200FCF7F9
:1041A0008FFC01202449C1F8A8010220FCF788FCFB
:1041B0000020224908604FF00200FCF781FC681CD7
:1041C000C5B2082DE2DB70BD70B505460024184865
:1041D000006820F47040164908600846006840F402
:1041E00000400860002616E00020144908604FF0E7
:1041F0000200FCF765FC01200F49C1F8A801600628
:10420000040E0F48006808B1601CC4B20120FCF71E
:1042100057FC701CC6B2082EE6DB15B9FFF780FF0D
:1042200001E0FFF759FF204670BD0000001002407A
:10423000040C0140AC81214200802142A88121422E
:104240002C81214210B5FFF7C1FE10BD70B50446A8
:104250000026FFF7D5FE2546E11704EB1161091290
:10426000A02202EB4101C8B2FFF77EFFFFF70BFF70
:10427000E11704EB11610912A4EB0121C8B2FFF7A9
:1042800073FFFFF700FFFFF7BBFEA120FFF76CFFF6
:10429000FFF7F9FE0020FFF797FF0646FFF7D2FE73
:1042A000304670BD70B504460E46FFF7A9FE2546A0
:1042B000E11704EB11610912A02202EB4101C8B21F
:1042C000FFF752FFFFF7DFFEE11704EB1161091260
:1042D000A4EB0121C8B2FFF747FFFFF7D4FE304639
:1042E000FFF742FFFFF7CFFEFFF7ACFE0A20FCF717
:1042F00002FC70BD2DE9F04105460E46174600242C
:1043000009E0E20026FA02F2D1B22A1990B2FFF7D0
:10431000C9FF601CC4B2BC42F3DBBDE8F0812DE9EB
:10432000F04107460C460026002509E036023919FF
:10433000491B491E88B2FFF789FF0644681CC5B2B5
:10434000A542F3DB3046BDE8F08110B5FF20FFF752
:104350007DFF0446552C01D1002010BD5521FF20C2
:10436000FFF7A0FFFF20FFF771FF0446552C01D196
:104370000020F2E70120F0E770B506460C4615462E
:1043800008E03046721C96B2FFF760FF04F8010B9C
:10439000681E85B2002DF4D170BD70B505460C467F
:1043A000164606E021782846FFF77CFF681C85B298
:1043B000641C3000A6F101018EB2F3D170BD000083
:1043C000F0B503460C461546642093FBF0F0C6B2E8
:1043D000642093FBF0F700FB1730C1B2132E02DD0F
:1043E00001F16400C1B20846CF1701EB977701EBEA
:1043F000A702072092FBF0F700FB172082B25719A3
:10440000601EDFF810C41CF80000384482B2CF17D9
:1044100001EB9777BF10B1EB870703D1032C01DACB
:10442000501E82B2072092FBF0F700FB1720C0B2AB
:10443000F0BD0146CA1701EB92729210B1EB8202F5
:1044400012D1642091FBF0F200FB121050B94FF42E
:10445000C87091FBF0F200FB121008B90120704700
:104460000020FCE70120FAE70020F8E770B50026FD
:1044700000240025E84806883604001D008806440C
:10448000E648B6FBF0F4E6480088A0423CD0E44998
:104490000C8040F2B27510E02846FFF7CAFF40B129
:1044A000B4F5B77F02D3A4F5B77404E0681C85B2F5
:1044B00006E0A4F26D14681C85B2B4F5B67FEBD8A3
:1044C00000BFD8488580002516E0D6498888FFF7C8
:1044D000B0FF30B1012D04D11D2C01D31D3C09E0EA
:1044E0000CE0D148405DA04203D8CF48405D241A7B
:1044F00000E003E0681C85B21C2CE6D200BF681CFB
:10450000C8498871601CC871C448B6FBF0F100FB53
:1045100011644FF46160B4FBF0F0C24908704FF4CD
:104520006160B4FBF0F100FB11403C21B0FBF1F005
:10453000BC4948704FF46160B4FBF0F100FB1140DE
:104540003C21B0FBF1F201FB1200B64988700B462A
:10455000DA7999799888FFF733FFB2490872002019
:1045600070BD2DE9F04F06460F4690469946DDE9AD
:1045700009AB002440F2B270864203DB40F6330000
:10458000864202DD0120BDE8F08F40F2B2750AE0FC
:104590002846FFF74EFF10B1A448044401E0A448A8
:1045A0000444681C85B2B542F2DB781EC7B2002510
:1045B00010E09D48405D40F2A321484304EBC01445
:1045C0003046FFF736FF18B1012D01D1934804445E
:1045D000681C85B2BD42ECDBA8F1010040F2A321CA
:1045E000484304EBC014C9EB4910C0EB092004EBAD
:1045F0000014CAEB0A1004EB80045C448D48C069C7
:1046000040F080508B49C8610846C06940F00060A6
:10461000C8618948006840F48070874908607E4816
:104620001438008840F010007B49143908807A491A
:10463000091D0C80200C091F088077481438008859
:1046400020F0100074491439088000BF72481438F3
:10465000008810F0200FF9D0FFF708FF002092E744
:104660001CB5002475480088A0F5A04150397DD0C4
:104670007048C06940F080506E49C8610846C06902
:1046800040F00060C8616C48006840F480706A497E
:1046900008606848006A40F480306649086208464D
:1046A000006A20F4803008620846006A40F0010089
:1046B000086204E0601CC4B20A20FCF71CFA5D48E2
:1046C000006A10F0020F01D1FA2CF3DBFA2C01DBA7
:1046D00001201CBD5748006A40F4807055490862AB
:1046E0000846006A40F40040086200BF4A48143897
:1046F000008810F0200FF9D000BF47481438008818
:1047000010F0080FF9D044481838008840F0010034
:1047100041491839088000BF3F481438008810F01C
:10472000200FF9D03C481438008840F010003A4976
:10473000143908800020091D088047F6FF70091D04
:104740000880372010210D230722CDE90010092110
:1047500040F2DC70FFF705FF2F481438008820F086
:1047600010002D491439088000BF00E00AE02A48F3
:104770001438008810F0200FF7D045F250002F4970
:10478000088015E000BF24481438008810F0080F96
:10479000F9D021481838008840F001001E49183926
:1047A000088000BF1C481438008810F0200FF9D092
:1047B0000223032200210846FCF7D4F9FFF756FE36
:1047C000002086E700B514481438008810F0010F67
:1047D00001D0FFF74BFE10481438008810F0020F8C
:1047E00007D00D481438008820F002000A49143917
:1047F000088009481438008840F6FA7108400649D4
:104800001439088000BF04481438008810F0200FC5
:10481000F9D000BD427D00081828004080510100F9
:10482000E2040020DA1600204E7D00080085E20137
:104830008033E1010010024000700040046C004031
:104840006B49098811F0200F10D06949091D0988AA
:10485000C8B268490978402908DA6749654A127878
:10486000885464490978491C624A117070472DE9DF
:10487000F05F05460E46300102F0CAFA81465F49F4
:1048800005FB01F002F0C4FA8246494602F0DEF967
:104890000746384602F09CFA84B2204602F0B8FA85
:1048A0008346394602F09BFB82464FF0834102F07B
:1048B000C3FA814602F08CFA8046240104EB08001A
:1048C00084B24F48806940F480704D4988614D48FA
:1048D000406820F0F0004B4948600846406840F0CE
:1048E000300048604648806940F0040044498861CF
:1048F0004548006820F47F40434908600846006846
:1049000040F40B4008603E48C06940F400303C4928
:10491000C8610846006940F4003008610846006933
:1049200020F400300861324808300480001D0088FF
:1049300042F20C0108432E490C31088008460088D9
:1049400040F4807008800846008840F0200008800D
:104950000223262203210846FCF704F900202B49F4
:104960000860BDE8F09F10B502460123274C236084
:104970004FF000000BE000BF1D4B1B8813F0400FF1
:10498000FAD0135C1A4C241D2380431CD8B28842F1
:10499000F1DB00BF164B1B8813F0400FFAD0002349
:1049A000144C2370194C236010BD2DE9F0410746CB
:1049B0000D46104806780024002028700A20FCF7D5
:1049C0009AF80C48007886420FD176B100BF04E017
:1049D0000948005D3855601CC4B2B442F8DB054894
:1049E00000782870002003490870BDE8F0810000BD
:1049F00000440040E4040020E416002040420F0080
:104A0000001002400020014000080140A40124429F
:104A100010B5A548C06940F00400A349C861084624
:104A2000806940F008008861A048006820F0F0002C
:104A30009E4908600846006840F0800008609B4876
:104A40000830006840F4007098490831086042F26C
:104A50001070974908804720091F08809448103833
:104A6000008840F480709249103908800846008818
:104A700040F440500880084600880880081D0088DF
:104A8000091D08800846008840F480500880884846
:104A90002038008840F010008549203908800846F9
:104AA000008840F00100088081482C38008840F0E0
:104AB00001007F492C39088002231E220321012096
:104AC000FCF750F810BD7A491C39088810F0010F26
:104AD0002BD07849097811F0800F26D075490978D4
:104AE00021F01001734A11701146097811F00F0F6F
:104AF00004D11146097841F0400111706D490978DF
:104B000001F00F010E2905DA6A490978491C694A42
:104B100011700AE06749097821F08001654A117037
:104B20001146097801F0F001117010F0100F13D048
:104B30006149096889B15E490C39098841F400511D
:104B40005B4A0C3A11800021121D118059490978E5
:104B500041F01001574A117071E05549143109882C
:104B6000564A118052490C39098821F40051504AA3
:104B70000C3A11804F49097811F0100F59D04D4966
:104B8000097811F0800F3FD04C490988B1F5967F24
:104B90000DDD4A490988B1F5487F08DA48490968B6
:104BA0004900474A116011460968116041E04349D4
:104BB0000988B1F5AF6F0FDD40490988B1F5E16FA4
:104BC0000ADA3F49096849003D4A116011460968FF
:104BD00041F0010111602CE03849098840F6980243
:104BE000914226DD3549098840F62822914220DA93
:104BF00034490978491C334A11702E49097801F06B
:104C0000F0012C4A117014E02C49098841F2680225
:104C100091420EDD2949098841F25C22914208DA6D
:104C20002449097841F08001224A11700021254A67
:104C300011702049097821F010011E4A11700021DD
:104C40001B4A1C3A1180704710B50020194B1B7885
:104C500013F0400F26D01A4B1B68190E184B1B6817
:104C6000C3F30742D343DBB299420CD159B9144B79
:104C70001B68C3F30721124B1B68DAB2D343DBB2C4
:104C8000994200D1084620B10A4B1B7813F0800FDF
:104C900008D1084B1B7823F04003064C23700023F7
:104CA000084C237010BD000000100240040C0140AD
:104CB0002C080040E804002024812142F204002056
:104CC000EC040020F00400204FF40061FE4A116063
:104CD00040B1FD491439096841F40061FA4A143AB7
:104CE000116007E0F8491439096821F40061F64AB7
:104CF000143A1160704700B50020FFF7E5FFF34854
:104D0000406820F47040F14948600846406840F42B
:104D1000405048600020EE49086000BD00B5EA48F8
:104D2000006810F4006F7DD04FF40060E649086021
:104D3000E848007820B90020E7490870E749087082
:104D4000E4480078401CE3490870084600780128D0
:104D500016DD084600780A2812DAE048007840108C
:104D6000DE490870DE480068B8B10846007840F0B7
:104D700080000870D8480078401CD74908700CE0C3
:104D8000D44800780A2808D1D548006828B1D2480C
:104D9000007840F08000D0490870CE4800780B2899
:104DA00040D1CD48007800F07F00CA4908700A461B
:104DB000117801EBD1725210B1EB420204D1C64A14
:104DC000127812F0800F0DD1C24A107800EBD07229
:104DD0005210A0EB4202012A59D1BF4A127812F0B8
:104DE000800F54D1BF48007800F00F00B949087017
:104DF000BA480078BC49B74A12788854B548007858
:104E00000F2804DAB7480078401CB6490870B54846
:104E1000007800F03000AF4908700846007830B1E3
:104E2000102800E041E00BD020282FD109E0FFF747
:104E300062FFAC48007840F08000AA49087025E085
:104E400024E0AA48007870B9A648007800F00F0066
:104E500003281AD1A348007840F08000A1490870C7
:104E6000FFF749FF11E0A148007803280DD19D48C4
:104E7000007800F00F00042807D19A48007840F02D
:104E8000800098490870FFF736FF00BF0AE0954898
:104E9000007840F04000934908700846007800F020
:104EA000F000087000208B49087000BD00B58748ED
:104EB000406820F47040854948600846406840F4E6
:104EC000004048600846406820F47060486008462A
:104ED000406840F40060486001207D4908608449D2
:104EE000C1F8A801FFF7F0FE00BD70B5044600252B
:104EF0000CB9012000E00020044609E00120FBF786
:104F0000DFFD681C85B2B5F57A5F01DD012070BD5B
:104F100078480068A042F1D00020F8E770B500247E
:104F2000002520E0601C84B20A20FBF7C9FD6D4813
:104F3000007810F0800F0CD06A48007800F00E0066
:104F400069490D5C6748007800F070006549087099
:104F50000AE041F27C50844204DC6248007810F0A0
:104F6000400F00D000E0DDE700BFFFF79FFF2846BD
:104F700070BD70B5054600240020FFF7A5FE53481C
:104F8000406820F47040514948600846406840F449
:104F9000405048600846406820F470604860084609
:104FA000406840F4407048600020494908604FF074
:104FB0007800FBF785FD00204D49C1F8A8010A20C3
:104FC000FBF77EFD4148406820F470403F4948604F
:104FD0000846406840F40040486001203C490860B1
:104FE0004FF00000FFF781FF00284FD1002617E0A7
:104FF00015F0010F06D001203F49086004F10100BF
:10500000C4B202E000203C4908604FEA65054FF059
:105010000100FFF76AFF0020FFF767FF701CC6B2B0
:10502000082EE5DB204604EBD0714910B4EB4101BA
:1050300003D101203049086002E000202E490860B9
:105040004FF00100FFF751FF0020FFF74EFF012056
:1050500029490860FFF749FF1C48406820F4706048
:105060001A4948600846406840F4006048600020E3
:10507000FFF73BFF1E48D0F8280118B90120FFF7C1
:1050800034FF07E0FFF712FF012070BDFFF70EFFAE
:105090000220FAE7FFF70AFF0020F6E710B51748ED
:1050A000806940F01000154988610848406820F484
:1050B0007F40064948600846406840F40840486020
:1050C0000846C0681CE000001404014000100140C4
:1050D000AC012242F5040020F7040020F604002071
:1050E00028012242F404002024170020F8040020A4
:1050F000000022422C012242A8012242001002405C
:1051000040F44060C86001220B210220FBF778FDCB
:105110000223282219460120FBF724FD10BD0000C0
:1051200089488A4948608A484860704787480069CA
:1051300040F080008549086170478448C16811F0DB
:10514000010F01D00120704711F0040F01D002209F
:10515000F9E711F0100F01D00320F4E70020F2E787
:1051600070B5044600BFFFF7E8FF0546012D00D0EB
:1051700006E00120FBF7A4FC601E84B2002CF2D1F3
:1051800000BF04B9FF25284670BD70B50546002450
:1051900045F6FF70FFF7E4FF0446C4B96B480069A9
:1051A00040F002006949086108464561006940F025
:1051B0004000086145F6FF70FFF7D2FF0446012C5E
:1051C00005D06248006920F002006049086120466D
:1051D00070BD70B505460E46FF20FFF7C1FF0446BF
:1051E00094B95A48006940F00100584908612E807E
:1051F000FF20FFF7B5FF0446012C05D05348006996
:1052000020F0010051490861204670BD0146088820
:1052100070472DE9F04105460E461746002407E089
:1052200036F814102846FFF7D4FFAD1C601C84B27A
:10523000BC42F5DBBDE8F08130B503460C461546AF
:10524000002207E01846FFF7E1FF24F812009B1C3C
:10525000501C82B2AA42F5DB30BD2DE9F05F8046DA
:105260008A461746B8F1006F02D33A48804501D309
:10527000BDE8F09FFFF754FFA8F1006B4FEADB2574
:10528000CBF34909C9F58064A74200DC3C464DE0F8
:105290004FF0006101EBC5204A142F49FFF7CCFF06
:1052A00000260BE009EB06002B4931F81000A0F5B1
:1052B0007F41FF3900D003E0701C86B2A642F1DBCB
:1052C00000BFA6421BDA4FF0006101EBC520FFF7DB
:1052D0005CFF002608E03AF8160006EB09011E4ABA
:1052E00022F81100701C86B2A642F4DB4FF0006178
:1052F00001EBC5204A141849FFF78BFF04E0224652
:1053000051464046FFF785FFA74200D10FE06D1CD4
:105310004FF000090AEB440AA044381B87B2B7F5E6
:10532000806F02DD4FF4806400E03C46B0E700BFD0
:10533000FFF7FCFE00BF9BE713B50446012201A95D
:105340002046FFF78AFF1CBD23016745002002406D
:10535000AB89EFCD000008083417002070B5054672
:105360000C46FEF74DFE2220FEF7FEFEFEF78BFEFA
:105370002846FEF7F9FEFEF786FE2012FEF7F4FE41
:10538000FEF781FEE0B2FEF7EFFEFEF77CFEFEF7D1
:1053900059FE70BD70B50546FEF732FE2220FEF7BD
:1053A000E3FEFEF770FE2846FEF7DEFEFEF76BFE1C
:1053B000FEF726FE2320FEF7D7FEFEF764FE01204F
:1053C000FEF702FF044624020020FEF7FDFE044320
:1053D000FEF738FE204670BD10B5FEF7F7FD002041
:1053E000FFF7D8FF0446A4F5B040053837D10221B5
:1053F0000846FFF7B3FF3220FBF77DFB4CF20101BB
:105400000220FFF7ABFF4FF41670FBF774FB48F672
:105410004F010520FFF7A2FF4FF4F0410720FFF7EF
:105420009DFF08211320FFF799FF4FF4A15115208C
:10543000FFF794FF4FF440411620FFF78FFF43F230
:1054400026111C20FFF78AFF49F624412220FFF78E
:1054500085FF4FF260614720FFF780FF01E00120E8
:1054600010BD0020FCE710B54020FFF793FF044675
:105470004FF6F070044021464020FFF76FFF10BD4B
:1054800010B54020FFF786FF04464FF6F070044049
:1054900044F0010421464020FFF760FF10BD10B525
:1054A0000B20FFF777FF0446601210BD70B505466C
:1054B0000520FFF76FFF04464FF6F070044005F03B
:1054C0000F00044321460520FFF748FF70BD70B56B
:1054D00005460220FFF75EFF044615B144F4804400
:1054E00001E024F4804421460220FFF737FF70BD1D
:1054F00070B505460520FFF74DFF044648F2FF0052
:10550000044044EA052421460520FFF727FF70BD2B
:1055100070B505464220FFF73DFF04464FF6C070C8
:1055200004402C4321464220FFF718FF70BD70B5A0
:1055300005464220FFF72EFF04464FF6FF000440C9
:1055400044EA052421464220FFF708FF70BD70B5EC
:1055500005460320FFF71EFF04464FF6F370044094
:1055600044EA850421460320FFF7F8FE70BD70B5BC
:1055700005460320FFF70EFF04464FF6FC7004407B
:105580002C4321460320FFF7E9FE70BD2DE9F047CB
:1055900006460027B8460320FFF7FCFE044604F049
:1055A0001F04C4F3810804F003070FB90A2704E0BD
:1055B000012F01D1142700E00527B8F1000F02D117
:1055C00042F2FC1510E0B8F1010F02D0B8F1020F61
:1055D00002D141F6B05507E05320FFF7DBFE054648
:1055E00005EB85004004050CAE4201DABDE8F0870A
:1055F000701B90FBF7F01FFA80F9C9F3090944EA20
:10560000891444F0100421460320FFF7A7FE14205C
:10561000FBF771FA00BF0B20FFF7BCFE10F0800F04
:10562000F9D000BFE2E72DE9F04100260027032072
:10563000FFF7B0FE04464FEAA418C4F3810704F054
:1056400003060EB90A2604E0012E01D1142600E05B
:10565000052617B942F2FC150EE0012F01D0022FEA
:1056600002D141F6B05507E05320FFF793FE0546FF
:1056700005EB85004004050C08FB065084B220466B
:10568000BDE8F08170B50025D948806940F004007C
:10569000D74988610846806940F00800886108465B
:1056A000806940F0100088610846806940F0200061
:1056B00088610846806940F480708861CD48006840
:1056C00020F00F00CB4908600846006840F0080051
:1056D0000860C8480830006840F48070C549083147
:1056E0000860C548006820F47F20C3490860084668
:1056F000006840F44C300860BF480C30006840F04F
:105700001800BD490C3108604FF08830BB49086073
:105710000846C06840F0FF00C860B948006820F043
:105720007060B74908600846006840F04070086043
:10573000B3480C30006840F04000B1490C310860BB
:10574000B048406820F07F40AE4948600846406855
:1057500040F04C5048604FF4E030C8600120FBF747
:10576000ECFA00F053F98021122000F05CFA08B145
:10577000012070BD3220FBF7BEF90B2000F072FA59
:105780000446732C01D00220F3E70A2000F06AFAE5
:105790000446762C01D00220EBE700250DE09A4A62
:1057A00002EB45025178984A12F8150000F03BFAD6
:1057B0000220FBF7A0F9681C85B2732DEFD30020FF
:1057C000D7E72DE9F0410446E72500260027012C04
:1057D00006D0022C08D0032C0AD0042C10D10BE0E8
:1057E000E5255A265C270BE0E5255826602707E0CB
:1057F000E52584264C2703E0E5259626402700BFB3
:1058000000BF2946132000F00EFA3146012000F0B7
:105810000AFA3946022000F006FABDE8F0812DE9C7
:10582000F0410446802522265E2734B1012C08D0A1
:10583000032C0AD0042C10D10BE0402511262F2771
:105840000BE066251B264B2707E0992528267127A4
:1058500003E0C02533268D2700BF00BF29464F2017
:1058600000F0E1F92946502000F0DDF90021512037
:1058700000F0D9F93146522000F0D5F939465320CD
:1058800000F0D1F92946542000F0CDF99E2158208E
:1058900000F0C9F9BDE8F08170B50446002534B1C7
:1058A000012C06D0032C06D0042C08D105E0B0252D
:1058B00005E0982503E0182501E0302500BF00BF72
:1058C0002946552000F0AFF970BD70B5044640255B
:1058D00034B1012C06D0032C06D0042C08D105E0ED
:1058E000302505E0382503E0502501E0602500BFA4
:1058F00000BF2946562000F096F970BD2DE9F04111
:1059000004460425C0268027072C1DD2DFE804F0BA
:105910001C04080C1014180024258026802713E08E
:105920001425802680270FE01425C02680270BE051
:1059300014254026402707E014258026C02703E0D1
:105940001425A026402700BF00BF29463A2000F0BA
:105950006AF93146682000F066F93946672000F0A0
:1059600062F9BDE8F0812DE9F04705460E46904604
:10597000994605EB48001FFA80FA06EB490087B20A
:10598000B7F5447F02DDA7F5447087B2032000F02D
:1059900069F9044604F0F0040AF00301284661F3B3
:1059A0009F0004432146032000F03DF9C5F3870121
:1059B000192000F038F9CAF387011A2000F033F9F2
:1059C000322000F04FF9044604F0C00407F007014C
:1059D000304661F3DF000443C6F3C701172000F02F
:1059E00022F9C7F3C701182000F01DF9BDE8F087C0
:1059F0000010024004080140000C0140001001406A
:105A000000140140002001405A7D0008A948806927
:105A100040F48070A74988610846806940F0200002
:105A20008861A548406820F47000A3494860084692
:105A3000406840F4000048600846C06840F40050E8
:105A4000C8609E48006820F470409C490860084681
:105A5000006840F44050086098480C30006840F0FE
:105A6000080096490C3108609348406820F47000A3
:105A7000914948600846406840F4401048607047CB
:105A800010B501208E4908608E49C1F88C014FF095
:105A90003200FBF715F80020894908604FF032000A
:105AA000FBF70EF800208749C1F88C0110BD10B536
:105AB0000020834908604FF03200FBF701F8012015
:105AC0008049C1F88C013220FAF7FAFF01207C49A5
:105AD00008604FF03200FAF7F3FF10BD10B5322026
