:020000040800F2
:1000000068DE00201D02000821020008230200080B
:10001000250200082702000829020008000000004D
:100020000000000000000000000000002B0200089B
:100030002D020008000000002F0200083102000815
:100040004B32000833020008330200080D65000837
:100050003302000833020008D55B000833020008B1
:1000600021300008493000087130000833020008D0
:10007000330200083302000833020008330200088C
:10008000330200083302000833020008330200087C
:100090003302000833020008330200080B31000865
:1000A000330200083302000833020008330200085C
:1000B0004D7C0008853200080F68000833020008F4
:1000C000330200083302000833020008330200083C
:1000D00033020008A52B00088965000833020008D8
:1000E000656A000833020008330200083302000882
:1000F000330200083302000833020008330200080C
:100100003302000833020008833400083302000879
:100110003302000833020008B73500083302000834
:1001200033020008330200083302000833020008DB
:1001300000F002F800F05CF80AA090E8000C82449D
:100140008344AAF10107DA4501D100F051F8AFF27A
:10015000090EBAE80F0013F0010F18BFFB1A43F0A5
:100160000103184744B4000064B400000A444FF08F
:10017000000C10F8013B13F0070408BF10F8014B06
:100180001D1108BF10F8015B641E05D010F8016B4B
:10019000641E01F8016BF9D113F0080F1EBF10F8AF
:1001A000014BAD1C0C1B09D16D1E58BF01F801CBD2
:1001B000FAD505E014F8016B01F8016B6D1EF9D555
:1001C0009142D6D37047000000230024002500266A
:1001D000103A28BF78C1FBD8520728BF30C148BFAA
:1001E0000B6070471FB50AF05EF81FBD10B510BD5B
:1001F00008F0D8F91146FFF7F5FF02F032FA08F0DF
:10020000F6F903B4FFF7F2FF03BC08F0FBF90000B6
:1002100030BF72B662B680F308887047084800475E
:10022000FEE7FEE7FEE7FEE7FEE7FEE7FEE7FEE7A6
:10023000FEE7FEE703480449044A054B7047000007
:100240003101000868D8002068DE002068DA00204C
:1002500068DA0020F848C06BF8490880F648806BDF
:10026000F7490880F448406CF6490880F248006C71
:10027000F549088070472DE9F041F44F3F78022F8F
:1002800076D10027DFF8C8C3CCF8B871DFF8C4C353
:10029000CCF890710127CCF890710027CCF89071C0
:1002A0000127DFF8ACC3CCF8B871DFF8A8C3CCF8ED
:1002B0009071002046E0002140E00027DFF894C361
:1002C000CCF89071E44FBF68FAB20127CCF8907176
:1002D00012020027CCF89071DF4FBF68FFB23A439B
:1002E0000127CCF89071D40AC2F3451602F01F051D
:1002F000274664F3DF073C46374666F39F073E46D2
:100300002F4665F3DF073D464FF4996704FB07F777
:1003100040F2592C06FB0CFC07EB8C0C40F2D31777
:1003200007FB05C74FEA273300EB800C01EB8C1C61
:10033000DFF8288308F80C3001F10101B1F5A07F46
:10034000BBD3401CF028B6D34FF48077DFF810C33E
:10035000CCF800700027DFF8F4C28CF80070C14FB1
:100360003F787F1CDFF8FCC28CF80070002017E09B
:1003700018E0002110E000EB800701EB8717DFF8A1
:10038000DCC21CF8077000EB800C01EB8C1CDFF862
:10039000D88208F80C70491CB1F5A07FEBD3401C43
:1003A000F028E6D3BDE8F0812DE9FF5F06460F4651
:1003B00091469A46002400254FF4A078A3460020D9
:1003C000039000BF95E000248EE0A819401E00FBBA
:1003D00008403844401EA149085C8DF80000A81967
:1003E000401E00FB08403844085C8DF80100A81945
:1003F000401E00FB08403844401C085C8DF8020099
:10040000A81900FB08403844401E085C8DF8030022
:10041000A81900FB08403844085C8DF80400A819AE
:1004200000FB08403844401C085C8DF80500A81902
:10043000401C00FB08403844401E085C8DF8060054
:10044000A819401C00FB08403844085C8DF80700E0
:10045000A819401C00FB08403844401C085C8DF87B
:100460000800824800789DF8001048437F49497889
:100470009DF8012001FB02007C4989789DF802204B
:1004800001FB02007949C9789DF8032001FB0200B5
:10049000764909799DF8042001FB020073494979E6
:1004A0009DF8052001FB0200704989799DF806201E
:1004B00001FB02006D49C9799DF8072001FB02008C
:1004C0006A49097A9DF8082001FB02001FFA80FBA7
:1004D000CBF307100390E119AA1902FB0811624A35
:1004E00003985054601C84B25445FFF66EAF681CEC
:1004F00085B24D45FFF667AFC8EB081002015A49B7
:10050000564807F09BFF012004B0BDE8F09F2DE99D
:10051000FF5F06460F4691469A46002400254FF499
:10052000A078A3460020039000BF78E0002472E08A
:10053000A819401E00FB08403844401E4749085C8B
:100540008DF80000A819401E00FB08403844085CE4
:100550008DF80100A819401E00FB08403844401CDB
:10056000085C8DF80200A81900FB08403844401EC2
:10057000085C8DF80300A81900FB08403844085CAB
:100580008DF80400A81900FB08403844401C085CA2
:100590008DF80500A819401C00FB08403844401E97
:1005A000085C8DF80600A819401C00FB0840384480
:1005B000085C8DF80700A819401C00FB084038446F
:1005C000401C085C8DF808009DF800009DF80110A3
:1005D00008449DF8021008449DF8031008449DF853
:1005E000041008449DF8051008449DF806100844BE
:1005F0009DF8071008449DF8081000EB010BCBF3A1
:1006000007100390E119AA1902FB0811164A039872
:100610005054601C84B254458ADB681C85B24D4539
:1006200084DBC8EB081002010F490C4807F006FFF5
:10063000012004B0BDE8F09F4800002074BD0020F8
:1006400070BD00207CBD002078BD0020A5BD00202D
:100650000000244200802142001001400000056893
:1006600014040140B0BD002000000A68A0BC0020B6
:100670002DE9FF5F06460F4691469A460024002565
:100680004FF4A078A3460020039000BF95E000241B
:100690008EE0A819401E00FB08403844401EFE4969
:1006A000085C8DF80000A819401E00FB0840384483
:1006B000085C8DF80100A819401E00FB0840384472
:1006C000401C085C8DF80200A81900FB0840384463
:1006D000401E085C8DF80300A81900FB0840384450
:1006E000085C8DF80400A81900FB08403844401C41
:1006F000085C8DF80500A819401C00FB0840384430
:10070000401E085C8DF80600A819401C00FB08403C
:100710003844085C8DF80700A819401C00FB08400D
:100720003844401C085C8DF80800DC4800689DF8DF
:1007300000104843D94949689DF8012001FB020097
:10074000D64989689DF8022001FB0200D349C96897
:100750009DF8032001FB0200D04909699DF804209F
:1007600001FB0200CD4949699DF8052001FB02000B
:10077000CA4989699DF8062001FB0200C749C96979
:100780009DF8072001FB0200C449096A9DF8082072
:1007900001FB02001FFA80FBCBF307100390E11965
:1007A000AA1902FB0811BE4A03985054601C84B277
:1007B0005445FFF66EAF681C85B24D45FFF667AF36
:1007C000C8EB08100201B649B34807F037FE012014
:1007D00004B0BDE8F09F2DE9FF4F87B006460F46F5
:1007E000002400254FF4A07800BF8EE0002486E0AE
:1007F000B54204D009983044401EA8420CD1A81933
:1008000000FB08403844A449085CA91901FB0841D1
:100810003944A34A505470E0BC4204D00A9838448A
:10082000401EA0420CD1A81900FB084038449A4948
:10083000085CA91901FB08413944994A50545CE00D
:1008400000200190681EC0B202901DE0601EC0B280
:10085000039011E00298304400FB087103980844AB
:100860008D490A5C0198411CC9B2019104A90A543E
:100870000398401CC0B20390A11C03988842E9DB96
:100880000298401CC0B20290A91C02988842DDDB8D
:100890004FF0000926E0CB4609F1010000F0FF0A05
:1008A0000CE004A810F80A0004A911F80B10884203
:1008B00000DAD3460AF1010000F0FF0ABAF1090F8D
:1008C000EFDB04A810F80900009004A810F80B0052
:1008D00004A901F80900009801F80B0009F10100D2
:1008E00000F0FF09B9F1050FD5DB9DF81400A91937
:1008F00001FB084139446A4A5054601C84B20A988A
:100900008442FFF675AF681C85B209988542FFF6F0
:100910006DAFC8EB0810020161495F4807F08EFD1A
:1009200001200BB0BDE8F08F2DE9FF4F8BB00646DC
:100930000F4693464FF4A078002521E100241AE1E8
:100940004FF0000AD1461DB1ABF10100A84202D11F
:1009500000200990FCE01CB10E98401EA04202D17C
:1009600000200990F4E0A819401E00FB084038441C
:10097000401E4949085C8DF81800A819401E00FB6C
:1009800008403844085C8DF81900A819401E00FB87
:1009900008403844401C085C8DF81A00A81900FB78
:1009A00008403844401E085C8DF81B00A81900FB65
:1009B00008403844085C8DF81C00A81900FB08406A
:1009C0003844401C085C8DF81D00A819401C00FB31
:1009D00008403844401E085C8DF81E00A819401CD1
:1009E00000FB08403844085C8DF81F00A819401C23
:1009F00000FB08403844401C085C8DF82000294862
:100A000000689DF818104843264949689DF8192048
:100A100001FB0200234989689DF81A2001FB0200AE
:100A20002049C9689DF81B2001FB02001D49096986
:100A30009DF81C2001FB02001A4949699DF81D2000
:100A400001FB0200174989699DF81E2001FB020085
:100A50001449C9699DF81F2001FB02001149096A68
:100A60009DF8202001FB020A50464FEAEA710AEB8A
:100A700011714FEA211ABAF1FF0F01DD4FF0FF0AA1
:100A8000BAF1000F01DA4FF0000A074800689DF83C
:100A900018104843044909E000000568ACBC002078
:100AA00000000A68F4BC0020D0BC002049689DF812
:100AB000192001FB0200F94989689DF81A2001FB01
:100AC0000200F649C9689DF81B2001FB0200F349AA
:100AD00009699DF81C2001FB0200F04949699DF855
:100AE0001D2001FB0200ED4989699DF81E2001FBD4
:100AF0000200EA49C9699DF81F2001FB0200E7498D
:100B0000096A9DF8202001FB020948464FEAE97175
:100B100009EB11714FEA2119B9F1FF0F01DD4FF017
:100B2000FF0AB9F1000F01DA4FF0000A0AFB0AF1DF
:100B300009FB091009F090FA019009F011F9CDE9CB
:100B4000020108F0CDFACDE9040108F035FD099065
:100B50000998052807DDFF20A91901FB0841394440
:100B6000CF4A505406E00020A91901FB084139443E
:100B7000CB4A5054641C0E988442FFF6E1AE6D1CC3
:100B80005D45FFF6DBAEC8EB08100201C449C5485D
:100B900007F054FC01200FB0BDE8F08F2DE9FF4FA6
:100BA0008BB006460F4693464FF4A078002516E119
:100BB00000240FE14FF0000AD1461DB1ABF1010056
:100BC000A84202D100200990F1E01CB10E98401E0D
:100BD000A04202D100200990E9E0A819401E00FBC4
:100BE00008403844401EAF49085C8DF81800A81929
:100BF000401E00FB08403844085C8DF81900A81915
:100C0000401E00FB08403844401C085C8DF81A0068
:100C1000A81900FB08403844401E085C8DF81B00F2
:100C2000A81900FB08403844085C8DF81C00A8197E
:100C300000FB08403844401C085C8DF81D00A819D2
:100C4000401C00FB08403844401E085C8DF81E0024
:100C5000A819401C00FB08403844085C8DF81F00B0
:100C6000A819401C00FB08403844401C085C8DF863
:100C700020008D4800689DF8181048438A4949684B
:100C80009DF8192001FB0200874989689DF81A2008
:100C900001FB02008449C9689DF81B2001FB02008A
:100CA000814909699DF81C2001FB02007E494969C0
:100CB0009DF81D2001FB02007B4989699DF81E20DB
:100CC00001FB02007849C9699DF81F2001FB020061
:100CD0007549096A9DF8202001FB020A50464FEA37
:100CE000EA710AEB11714FEA211ABAF1FF0F01DD27
:100CF0004FF0FF0ABAF1000F01DA4FF0000A6B481B
:100D000000689DF818104843684949689DF8192003
:100D100001FB0200654989689DF81A2001FB020069
:100D20006249C9689DF81B2001FB02005F490969FF
:100D30009DF81C2001FB02005C4949699DF81D20BB
:100D400001FB0200594989699DF81E2001FB020040
:100D50005649C9699DF81F2001FB02005349096AE1
:100D60009DF8202001FB020948464FEAE97109EB92
:100D700011714FEA2119B9F1FF0F01DD4FF0FF0AA0
:100D8000B9F1000F01DA4FF0000A0AFB0AF109FB82
:100D9000091009F061F9019008F0E2FFCDE90201C4
:100DA00008F09EF9CDE9040108F006FC09900998C5
:100DB000322807DDFF20A91901FB08413944384AD0
:100DC000505406E00020A91901FB08413944344A77
:100DD0005054641C0E988442FFF6ECAE6D1C5D45C9
:100DE000FFF6E6AEC8EB081002012D492D4807F0CA
:100DF00025FB01200FB0BDE8F08F2DE9F047064636
:100E00000F4691469A46002400254FF4A07800BF73
:100E100015E000240FE0A81900FB084038442149E0
:100E2000085CC0F1FF00A91901FB084139441C4AC4
:100E30005054601C84B25445EDDB681C85B24D45AE
:100E4000E7DBC8EB081002011549164807F0F6FA6F
:100E50000120BDE8F0872DE9F04FADF61C4D0646A8
:100E60000F4691469A46002400254FF4A0784FF48F
:100E700080610DF6180007F026FB4FF480610DF538
:100E8000836007F020FB0020CDF814044FF480614C
:100E900005A807F018FB00BF2DE00000D0BC002023
:100EA00000000A68000005683CBD002018BD002055
:100EB00000241CE0A81900FB08403844FE49085CE7
:100EC00005A951F82000401CA91901FB084139442B
:100ED000F94A515C05AA42F821004FF07E51DDF835
:100EE000140408F069FFCDF81404601C84B2544562
:100EF000E0DB681C85B24D45DADB002413E00AFB19
:100F000009F009F0A9F805A9049051F8240009F0A6
:100F1000A3F80390049908F0BDFF0DF6180141F8FD
:100F20002400601C84B2FF2CE9DD002415E00025BC
:100F30000FE00DF6180252F825100DF5836252F8F5
:100F4000240008F039FF0DF5836141F82400681C86
:100F500085B2A542EDDD601C84B2FF2CE7DD06FB07
:100F60000870D54911F800B0CDF818BC002528E06C
:100F7000002422E0A81900FB08403844CE49095C4F
:100F8000DDF8180C814208DDA81900FB0840384440
:100F9000C949085CCDF8180C0DE0A81900FB084001
:100FA0003844C549085C584505DAA81900FB0840D3
:100FB000384411F800B0601C84B25445DADB681C78
:100FC00085B24D45D4DB00252CE0002426E05846B0
:100FD00009F05AF80390DDF8181CA1EB0B0009F09A
:100FE0003BF80190A81900FB08403844B24A125C53
:100FF0000DF5836050F82210019809F08DF80290E9
:10100000039908F0D9FE049009F006F8A91901FB2C
:1010100008413944A94A5054601C84B25445D6DB77
:10102000681C85B24D45D0DBC8EB08100201A3490E
:10103000A14807F003FA01200DF61C4DBDE8F08F22
:101040002DE9FF4FADF66C0D804689469346002092
:10105000CDF8680800219A48CDF85818CDF85C08FA
:1010600000200F904FF4A07ADDF8781801FB0BF008
:1010700008F0FFFA0DF5066203C24FF47F710DF21E
:101080005C4007F020FA4FF47F7118A807F01BFAB4
:10109000002525E000241DE004EB090105EB080212
:1010A00002FB0A11844A515C0DF25C4252F82100A5
:1010B0004FF07E5108F080FE04EB090105EB0802B9
:1010C00002FB0A117C4A515C0DF25C4242F821009D
:1010D000601CC4B2DDF878088442DDDB681CC5B250
:1010E0005D45D7DB002615E00DF25C4151F8260086
:1010F00008F036FECDE90A010DF506620CCA08F0CB
:1011000003F9CDE90C0108F011F818A941F82600FF
:10111000701CC6B2304608F0C3FACDE90C010DF6DA
:1011200058020CCA08F0D0FADED300269FE0002057
:101130001090119012901390149015901690179093
:10114000002730E0B74216DA18A850F82710179891
:1011500008F032FE1790384608F096FF0D9018A858
:1011600050F827100D9808F0D7FF0E90159908F049
:1011700023FE159015E018A850F82710169808F0CF
:101180001BFE1690384608F07FFF0D9018A850F807
:1011900027100D9808F0C0FF0E90149908F00CFE6F
:1011A0001490781CC7B2384608F07AFACDE90C01E1
:1011B0000DF658020CCA08F087FAC3D31799159890
:1011C00008F068FE13901699149808F063FE1290C8
:1011D000DDE9141008F0F0FD1190DDE9111009F0BF
:1011E000A9F8019008F0BCFD00224FF08043CDE942
:1011F000020107F07FFACDE90601169808F0B0FD6C
:10120000CDE90401DDE9062308F09AFACDE90A01E7
:101210001199139809F08EF8019008F0A1FD0022B1
:101220004FF08043CDE9020107F064FACDE90601F1
:10123000179808F095FDCDE90401DDE9062308F0D3
:101240007FFACDE90801DDE90A2307F0A1FFCDE926
:101250000C0107F06BFF1090DDE90F1009F02FF87B
:1012600003D210980F90CDF86868701CC6B2304653
:1012700008F016FACDE90C010DF658020CCA08F078
:1012800023FAFFF454AF00252FE0002427E004EBFD
:10129000090005EB080101FB0A000749095CDDF8BC
:1012A0006808814210DA002004EB090105EB08020E
:1012B00002FB0A11014A05E00000056800000A6807
:1012C00000E06F40505408E0FF2004EB090105EBFB
:1012D000080202FB0A11FE4A5054601CC4B2DDF839
:1012E00078088442D3DB681CC5B25D45CDDBCAEB10
:1012F0000A100201F649F74807F0A0F801200DF6A0
:101300007C0DBDE8F08F2DE9F04104460D461646F0
:101310001F46002100224FF4A07300BF26E00021E9
:1013200020E0101900FB03102844DFF8A8C31CF8C4
:10133000000080280ADA002002EB040C0CFB031CDE
:10134000AC44DFF8908308F80C0009E0FF2002EBC2
:10135000040C0CFB031CAC44DFF8788308F80C0089
:10136000481C81B2B942DCDB501C82B2B242D6DBEF
:101370000120BDE8F0812DE9FF4FCBB080468946C2
:1013800093464FF4A07A4FF480710BA807F09BF8B6
:10139000D1480A90D1480990D1480890D148079087
:1013A0000026AFE0304608F057FE06900A9908F094
:1013B0007FFE24D200210A9808F0BCFF039008F0B9
:1013C000CFFC21F00041C84AC84BCDE9040108F028
:1013D000B5FA11D2304608F03FFE05900A990898F8
:1013E00008F058FD0490059908F096FE069008F064
:1013F000B7FC04460D4678E00024254675E03046EB
:1014000008F02AFE0690099908F052FE38D8DDE966
:10141000090108F08FFF039008F0A2FC21F00041C1
:10142000B14AB24BCDE9040108F088FA22D2304625
:1014300008F012FE02900A9908F07CFF0490DDE9A2
:10144000090108F077FF0290DDE9070108F072FF5B
:101450000190029908F01EFD0390049908F05CFECB
:101460000590089908F0A8FC069008F079FC04465D
:101470000D463AE0304608F0FCF804460D4634E0EC
:101480009B49079808F056FF039008F069FC21F08B
:101490000041954A954BCDE9040108F04FFA22D25C
:1014A000304608F0D9FD0290099908F043FF0490F6
:1014B0008F48099908F03EFF02908D48079908F07F
:1014C00039FF0190029908F0E5FC0390049908F0B7
:1014D00023FE0590079908F06FFC069008F040FC89
:1014E00004460D4601E00024824D0022824B204636
:1014F000294607F04DFECDE9040108F05DF80BA97F
:101500008855761CFF2E7FF74DAF002716E000268A
:1015100010E007EB080000FB0A6048446D49085CD6
:101520000BA9085C07EB080101FB0A614944684A02
:101530005054761C4E988642EBDB7F1C5F45E6DB01
:10154000CAEB0A1002016249624806F077FF0120E7
:101550004FB0BDE8F08F2DE9FC5F07468846914605
:101560009A46002000904FF4A0763D464DE0444658
:1015700046E000200090BD4204D007EB0900401E69
:10158000A84205D1002005FB0641514A505436E0DF
:10159000444504D008EB0A00401EA04205D10020BB
:1015A00005FB06414A4A505429E005FB06404949DB
:1015B000085CFF2823D1681E019014E0A4F1010B00
:1015C0000BE0019800FB06B04149085CFF2802D1FE
:1015D0000098401C00900BF1010BA01C8345F0DB30
:1015E0000198401C0190A91C01988842E6DB0098F4
:1015F000052804DA002005FB0641354A5054641CD6
:1016000008EB0A00A042B4DC6D1C07EB0900A842FD
:10161000ADDCC6EB061002012D492E4806F00EFF88
:101620000120BDE8FC9F2DE9F04F85B004460D4632
:1016300094469846002100224FF4A07301200090A8
:101640004FF0000923E20020009081460122F0E0E3
:101650000121E7E0101900FB03102844DFF874B003
:101660001BF8000000B9DBE0101900FB0310284450
:10167000401CDFF860B01BF80000ADF80400101942
:10168000401E00FB03102844401C1BF80000ADF86E
:1016900006001019401E00FB031028441BF8000030
:1016A000ADF808001019401E00FB03102844401E2E
:1016B0001BF80000ADF80A00101900FB03102844C5
:1016C000401E1BF80000ADF80C001019401C15E07E
:1016D00000000A6800000568000048420000C84297
:1016E0000000A041000048432D431CEBE2361A3FA6
:1016F00000007F4300E06F400000E03F00FB03106C
:101700002844401E1BF80000ADF80E001019401CC4
:1017100000FB031028441BF80000ADF8100010195E
:10172000401C00FB03102844401C1BF80000ADF8CF
:101730001200BDF80400BDF806B05844BDF808B06A
:101740005844BDF80AB05844BDF80CB05844BDF830
:101750000EB05844BDF810B05844BDF812B058440B
:101760004FF0FF0B90FBFBFABAF1020F02DBBAF16C
:10177000060F00DD54E0002701260DE001A830F837
:1017800016B0701E0DF1040E3EF81000ABEB000019
:10179000FF2800D17F1C761C082EEFDBBDF804006B
:1017A000BDF812B0A0EB0B00FF2800D17F1C012F69
:1017B00000D035E0BDF80800BDF804B000EA0B0029
:1017C000BDF810B0BBF1000F02D04FF0010B01E0EB
:1017D0004FF0000B10EA0B0F00D021E0BDF8040021
:1017E000BDF810B000EA0B00BDF80CB0BBF1000F63
:1017F00002D04FF0010B01E04FF0000B10EA0B0F8D
:1018000000D00DE0012002EB040B0BFB031BAB44EB
:10181000DFF88CE60EF80B0009F10109009000BF1B
:10182000481C81B2A8F1010088423FF713AF501C59
:1018300082B2ACF1010090423FF70AAFB9F1000F5C
:101840001FDD00221BE0002115E0101900FB031032
:101850002844DFF84CB61BF80000012809D100200D
:1018600002EB040B0BFB031BAB44DFF838E60EF86E
:101870000B00481C81B24145E7DB501C82B2624537
:10188000E1DB4FF000090122D9E00121D0E010197D
:1018900000FB03102844DFF80CB61BF8000000B969
:1018A000C4E0101900FB03102844401CDFF8F4B515
:1018B0001BF80000ADF804001019401E00FB0310D7
:1018C0002844401C1BF80000ADF806001019401E0B
:1018D00000FB031028441BF80000ADF808001019A5
:1018E000401E00FB03102844401E1BF80000ADF80A
:1018F0000A00101900FB03102844401E1BF80000CA
:10190000ADF80C001019401C00FB03102844401EC9
:101910001BF80000ADF80E001019401C00FB03106E
:1019200028441BF80000ADF810001019401C00FB03
:1019300003102844401C1BF80000ADF81200BDF84D
:101940000400BDF806B05844BDF808B05844BDF8CE
:101950000AB05844BDF80CB05844BDF80EB0584415
:10196000BDF810B05844BDF812B058444FF0FF0B0A
:1019700090FBFBFABAF1020F02DBBAF1060F00DDB1
:1019800054E0002701260DE001A830F816B0701EC3
:101990000DF1040E3EF81000ABEB0000FF2800D163
:1019A0007F1C761C082EEFDBBDF80400BDF812B0DA
:1019B000A0EB0B00FF2800D17F1C012F00D035E0E9
:1019C000BDF80800BDF804B000EA0B00BDF80CB08B
:1019D000BBF1000F02D04FF0010B01E04FF0000B04
:1019E00010EA0B0F00D021E0BDF80800BDF810B0E0
:1019F00000EA0B00BDF80CB0BBF1000F02D04FF0B5
:101A0000010B01E04FF0000B10EA0B0F00D00DE0CE
:101A1000012002EB040B0BFB031BAB44DFF880E45B
:101A20000EF80B0009F10109009000BF481C81B2BB
:101A3000A8F1010088423FF72AAF501C82B2ACF1F6
:101A4000010090423FF721AFB9F1000F1FDD0022E6
:101A50001BE0002115E0101900FB03102844DFF8FB
:101A600040B41BF80000012809D1002002EB040B50
:101A70000BFB031BAB44DFF82CE40EF80B00481CF7
:101A800081B24145E7DB501C82B26245E1DB009840
:101A900000287FF4D8AD012005B0BDE8F08F2DE916
:101AA000FF4F83B006460F4692464FF4A0780125BB
:101AB0005EE0012456E04FF0010BA81900FB08403E
:101AC0003844F849085C8DF80400A81900FB084068
:101AD0003844801E085C8DF80500A81900FB0840FA
:101AE0003844401E085C8DF80600A81900FB084029
:101AF0003844401C085C8DF80700A81900FB08401A
:101B00003844801C085C8DF808004FF0000911E093
:101B10009DF8040018B101A810F8090010B94FF0A1
:101B2000000B0AE0BBF1000F00D106E009F1010053
:101B30001FFA80F9B9F1050FEADB00BFBBF1000F16
:101B400007D10020A91901FB08413944D44A505457
:101B500006E0FF20A91901FB08413944D04A50543E
:101B6000601C84B20698401EA042A4DC681C85B2AA
:101B7000AAF10100A8429CDCC8EB08100201C84988
:101B8000C84806F05BFC012007B0BDE8F08F2DE9E6
:101B9000FF4F83B006460F4692464FF4A0780024CC
:101BA0005EE0002557E04FF0010BA01900FB085044
:101BB0003844BC49085C8DF80400A01900FB0850AB
:101BC0003844801E085C8DF80500A01900FB085001
:101BD0003844401E085C8DF80600A01900FB085030
:101BE0003844401C085C8DF80700A01900FB085021
:101BF0003844085C8DF808004FF0000913E09DF8A8
:101C00000400FF2804D001A810F80900FF2802D121
:101C10004FF0000B0AE0BBF1000F00D106E009F124
:101C2000010000F0FF09B9F1050FE8DB00BFBBF1CF
:101C3000000F07D1FF20A11901FB08513944984A30
:101C4000505406E00020A11901FB08513944944A80
:101C50005054681C85B206988542A4DB601C84B28F
:101C600054459EDBC8EB081002018D498D4806F0F3
:101C7000E5FB012007B0BDE8F08F2DE9FF4F83B0F1
:101C800006460F4693464FF4A07801255EE00124F6
:101C900056E04FF0010AA81900FB0840384481497A
:101CA000085C8DF80400A81900FB08403844801E29
:101CB000085C8DF80500A81900FB08403844401E58
:101CC000085C8DF80600A81900FB08403844401C49
:101CD000085C8DF80700A81900FB08403844801CF8
:101CE000085C8DF808004FF0000911E09DF8040031
:101CF00018B101A810F8090010B94FF0000A0AE065
:101D0000BAF1000F00D106E009F101001FFA80F9D5
:101D1000B9F1050FEADB00BFBAF1000F07D10020CF
:101D2000A91901FB084139445D4A505406E0FF20DF
:101D3000A91901FB08413944594A5054601C84B226
:101D40000698401EA042A4DC681C85B2ABF10100DD
:101D5000A8429CDC00255EE0002457E04FF0010A19
:101D6000A81900FB084038444E49085C8DF804006F
:101D7000A81900FB08403844801E085C8DF8050057
:101D8000A81900FB08403844401E085C8DF8060086
:101D9000A81900FB08403844401C085C8DF8070077
:101DA000A81900FB08403844085C8DF808004FF083
:101DB000000913E09DF80400FF2804D001A810F8E2
:101DC0000900FF2802D14FF0000A0AE0BAF1000F23
:101DD00000D106E009F101001FFA80F9B9F1050F01
:101DE000E8DB00BFBAF1000F07D1FF20A91901FB02
:101DF000084139442A4A505406E00020A91901FB41
:101E000008413944264A5054601C84B206988442E2
:101E1000A4DB681C85B25D459EDBC8EB081002019F
:101E20001F49204806F00AFB012007B0BDE8F08FEB
:101E30002DE9FF4F83B006460F4693464FF4A07836
:101E4000002462E000255BE04FF0010AA01900FBCE
:101E5000085038441349085C8DF80400A01900FBB1
:101E600008503844801E085C8DF80500A01900FB5E
:101E700008503844401E085C8DF80600A01900FB8D
:101E800008503844401C085C8DF80700A01900FB7E
:101E900008503844085C8DF808004FF0000917E03E
:101EA00000000A68000005689DF80400FF2804D0BF
:101EB00001A810F80900FF2802D14FF0000A0AE03B
:101EC000BAF1000F00D106E009F1010000F0FF09AE
:101ED000B9F1050FE8DB00BFBAF1000F07D1FF2011
:101EE000A11901FB08513944FE4A505406E0002074
:101EF000A11901FB08513944FA4A5054681C85B2B3
:101F000006988542A0DB601C84B25C459ADB012404
:101F10005EE0012556E04FF0010AA01900FB0850D1
:101F20003844F149085C8DF80400A01900FB085002
:101F30003844801E085C8DF80500A01900FB08508D
:101F40003844401E085C8DF80600A01900FB0850BC
:101F50003844401C085C8DF80700A01900FB0850AD
:101F60003844801C085C8DF808004FF0000911E02F
:101F70009DF8040018B101A810F8090010B94FF03D
:101F8000000A0AE0BAF1000F00D106E009F10100F1
:101F900000F0FF09B9F1050FEADB00BFBAF1000F4D
:101FA00007D10020A11901FB08513944CD4A5054F2
:101FB00006E0FF20A11901FB08513944C94A5054D9
:101FC000681C85B20698401EA842A4DC601C84B23E
:101FD000ABF10100A0429CDCC8EB08100201C14932
:101FE000C14806F02BFA012007B0BDE8F08F2DE9BB
:101FF000FE4F06460F4691469A464FF4A0780025BC
:102000009EE0002497E01DB1A9F10100A8420CD187
:10201000A81900FB08403844B349085CA91901FB22
:1020200008413944AF4A505483E01CB1AAF1010081
:10203000A0420CD1A81900FB08403844AA49085C0A
:10204000A91901FB08413944A64A505471E0A81966
:1020500000FB08403844A449085C002869D1A8194D
:10206000401E00FB08403844401E085C8DF800000C
:10207000A819401E00FB08403844085C8DF8010098
:10208000A819401E00FB08403844401C085C8DF82D
:102090000200A81900FB08403844401E085C8DF877
:1020A0000300A81900FB08403844085C8DF80400C0
:1020B000A81900FB08403844401C085C8DF8050056
:1020C000A819401C00FB08403844401E085C8DF8ED
:1020D0000600A819401C00FB08403844085C8DF835
:1020E0000700A819401C00FB08403844401C085C4D
:1020F0008DF808009DF800009DF8011008449DF837
:10210000021008449DF8031008449DF80510084487
:102110009DF8061008449DF8071008449DF8081023
:10212000401806D1FF20A91901FB084139446D4A26
:102130005054601C84B25445FFF665AF681C85B2EC
:102140004D45FFF65EAFC8EB0810020165496648D1
:1021500006F074F90120BDE8FE8F2DE9FF4F8BB02A
:1021600004460D4693464FF4A0760021089109914C
:102170000020069007900491059100278046824632
:1021800044E04FF000093AE00AEB040101FB06913C
:102190002944554A505C07F083FACDE90201DDE994
:1021A000082306F0F5FFCDE908010AEB040101FB65
:1021B000069129444C4A515C01FB09F007F059FA99
:1021C000CDE90201DDE9062306F0E2FFCDE90601D3
:1021D0000AEB040101FB06912944434A515C01FBCF
:1021E0000AF007F046FACDE90201DDE9042306F022
:1021F000CFFFCDE9040109F101001FFA80F90E9823
:102200008145C1DB0AF101001FFA80FADA45B8DB2B
:1022100006A80FC807F078F80022344BCDE900017A
:1022200006F0B6FFCDE9020107F0F6F987B2DDE965
:102230000823DDE9040107F067F800222B4BCDE904
:10224000000106F0A5FFCDE9020107F0E5F91FFA4C
:1022500080F8802108EB0400401E00FB0670284433
:10226000401E214A115408EB0400401E00FB06707A
:102270002844115408EB0400401E00FB067028445B
:10228000401C115408EB040000FB06702844401E5B
:102290001154802008EB040101FB067129445054BD
:1022A000802108EB040000FB06702844401C1154F8
:1022B00008EB0400401C00FB06702844401E11542B
:1022C00008EB0400401C00FB06702844115408EB86
:1022D0000400401C00FB06702844401C11540120DF
:1022E0000FB005E000000A68000005680000E03F4C
:1022F000BDE8F08F2DE9F04304460D4616464FF039
:10230000000C00274FF4A078214614E000272A464D
:1023100009E002FB0810DFF8C09419F80000FF285C
:1023200000D17F1C521CA8199042F2DC002F01DD65
:102330008C4603E0491CE0188842E7DC00BF1FFA26
:102340008CF0BDE8F0832DE9F04304460D461646B7
:102350004FF0000C00274FF4A078E018411E14E065
:1023600000272A4609E002FB0810DFF86C9419F8F0
:102370000000FF2800D17F1C521CA8199042F2DCFB
:10238000002F01DD8C4602E0491EA142E8DA00BFC1
:102390001FFA8CF0BDE8F0832DE9F04304460D46AA
:1023A00016464FF0000C00274FF4A078294614E0A1
:1023B0000027224609E001FB0820DFF81C9419F8E9
:1023C0000000FF2800D17F1C521CE0189042F2DC74
:1023D000002F01DD8C4603E0491CA8198842E7DC88
:1023E00000BF1FFA8CF0BDE8F0832DE9F0430446EE
:1023F0000D4616464FF0000C00274FF4A078A819A0
:10240000411E14E00027224609E001FB0820DFF806
:10241000C89319F80000FF2800D17F1C521CE01857
:102420009042F2DC002F01DD8C4602E0491EA942F9
:10243000E8DA00BF1FFA8CF0BDE8F0832DE9FF4F0A
:1024400097B006460F464FF4A0701590142110A8BF
:1024500006F039F814210BA806F035F80020089092
:1024600007900690059000241EE00020002514E04F
:10247000C4EB041205EB4203D84A02EB0312D16805
:10248000002901DB0A4600E04A421FFA82F8B8F14F
:10249000640F00D04044691C8DB21E2DE8DB0BAAEE
:1024A00022F81400601C84B20A2CDEDBB0B2029069
:1024B000B8B201901A9883B2199882B2B1B2B8B288
:1024C000FFF718FF089031463846DDE91923FFF77A
:1024D00063FF069031463846DDE91923FFF733FFE5
:1024E000079031463846DDE91923FFF77EFF059056
:1024F000DDE90701421ADDE90501401A92FBF0F01F
:10250000032803DD01201BB0BDE8F08F002476E036
:102510000020C4EB04114A00B04901EB0211C96864
:10252000642911D1C4EB04114A00AC4901EB02113A
:10253000496889B20391C4EB04114A00A74901EB31
:102540000211096889B20491012C03D10021ADF870
:10255000421052E001254AE0C4EB041105EB4102B0
:102560009E4901EB02110A680499511A1FFA81F978
:10257000C4EB041105EB4102984901EB02114A68D2
:102580000399511A1FFA81FAC4EB041105EB4102B9
:10259000924901EB0211896889B21691C4EB0412C9
:1025A00005EB42038D4A02EB0312D168002901DBDF
:1025B0000A4600E04A421FFA82FBC4EB041105EB15
:1025C0004102864901EB0211C96871B1089901EB1A
:1025D0000902069901EB0A03159903FB01217E4AC2
:1025E000525C16998A4200D15844691C8DB21E2D46
:1025F000B2DB10AA22F8140000BF601C84B20A2CBF
:1026000086DB002412E00BA830F8140060B110A89B
:1026100030F81400642148430BA931F8141090FBE2
:10262000F1F010A921F81400601C84B20A2CEADB36
:10263000BDF840000A900020099000240CE010A88A
:1026400030F814100A98814204DB10A830F8140006
:102650000A900994601C84B20A2CF0DB0998C0B27D
:1026600051E78CB0142107A805F02DFF142102A812
:1026700005F029FF00BF00BF092000F037FAFDF781
:10268000E9FD4FF4E131482000F0BBFB482000F0A9
:10269000C5F801F02FFB05F0BFF951488088A0F57F
:1026A000D041043905D1F0204D4908804FF4A07085
:1026B00048800EE0C82000F0E2F84FF6FF70CE230D
:1026C000EF22BE2100903C2002F069FFC82000F0FC
:1026D000D6F804F07BFE0028ECD14248007804F0E4
:1026E00014FF4148007804F03EFF4048007804F0B1
:1026F00077FF3F48007804F08CFF3E48007804F0F4
:10270000A1FF41F61F41092000F0F3FD41F61F41F2
:1027100042F2107000F05EFF00F01CFD4FF4A07359
:10272000F022AE210A2004F0C2FF002032490860E6
:102730004FF00200314908704CE03148007828B170
:10274000002000F04CFB00202D490870FDF793FDA0
:102750002C4803882C4802882C4801882C48008883
:10276000FEF76EFC2748038827480288274801881F
:1027700027480088FFF762FE042001F0ACF8002132
:10278000084600F09DFF00F07EFF002420E00025B9
:102790001AE004EB840005EB80101E49085CC010B1
:1027A000C00204EB840105EB81111A4A515C8910C7
:1027B00040EA411004EB840105EB8111515C40EAD1
:1027C000E100154908806D1CB5F5A07FE1D3641CBC
:1027D000F02CDCD3B1E7000000000A689000002074
:1027E000A4CF002030000020310000203200002063
:1027F0003300002034000020BC012442A5BD00208D
:10280000A8BD002078BD00207CBD002070BD002048
:1028100074BD0020000005680008006C4FF0E02146
:10282000096921F004014FF0E0221161C21700EBA9
:102830005272D2101F4B1A70194609784FF47A72EF
:1028400051431D4A1180704701461A4A12784A4383
:102850004FF0E0235A6100229A6101221A6100BF01
:102860004FF0E022106910F0010F02D010F4803F09
:10287000F6D000224FF0E0231A619A6170470146BA
:102880000D4A12884A434FF0E0235A6100229A61B0
:1028900001221A6100BF4FF0E022106910F0010F11
:1028A00002D010F4803FF6D000224FF0E0231A61EE
:1028B0009A61704788BD00208ABD0020AC4A0A405A
:1028C0000243AC4B1A6070470146072323EA01021A
:1028D0001202A84B1B1D18684FF6FF031840A64BA9
:1028E00018431043A34B1B1D186070472DE9F04798
:1028F0008046894614461D462046E11704EB917137
:102900004FEAA10AE11704EB91718910A4EB810150
:10291000CFB2042000EBC700C7B22846FFF7D4FFB0
:10292000C5F1040008FA00F60F20284100EA09006A
:10293000064306F00F06202C0CDA904800684FF092
:10294000010101FA04F140EA01004FF0E021C1F871
:1029500000010DE08A480068A4F120014FF0010257
:1029600002FA01F240EA02004FF0E021C1F804014E
:10297000844850F82A0006FA07F140EA010081492C
:1029800041F82A00BDE8F08770B504460B46CE1723
:1029900001EB9676B010CE1701EB9676B610A1EB50
:1029A0008606B606350E784B9B6943F00103764EDA
:1029B000B3614FEAB63353F820300F26AE40B3432D
:1029C000724E46F82030334653F8203004FA05F6AC
:1029D00033436E4E46F820306D4B1E6801238B400A
:1029E0001E436B4B1E6012F0010F08D0684B0C3376
:1029F0001B6801268E403343654E0C36336012F05F
:102A0000020F08D0624B08331B6801268E40334307
:102A10005F4E0836336070BD00B500205A4908612A
:102A2000C8601420486100208861C86108460068B9
:102A300040F0010008600846406856490840524985
:102A4000486008460068544908404F4908600846F5
:102A5000006820F4802008600846406820F4FE00EA
:102A600048600020886000214FF00060FFF726FFDB
:102A700000BD10B53F480830006840F004003D49F3
:102A8000083108604048C06940F080503E49C86144
:102A90004248406840F480704049486008460068F9
:102AA00040F0040008600846006840F0020008603A
:102AB000FDF7AEFB10BD3048001D2E49091D086012
:102AC000704701464906304A926942F001022E4B96
:102AD0009A612E4A083A526822F0E0622B4B083B7A
:102AE0005A601A4652680A435A60704730B5044625
:102AF0000025FFF791FF2448006840F48030224908
:102B0000086000BF20480068400CFBD04FF4806094
:102B10001D494860A01EC4B20846406840EA84408F
:102B200048600846406840F4803048601C480068AF
:102B300040F032001A4908601348006840F0807085
:102B40001149086000BF10480068400EFBD00E48D5
:102B5000406840F002000C49486005E00A484068BF
:102B6000C0F3870505F00305022DF7D130BD000045
:102B700080FFFF1F08ED00E00000FA0500E100E023
:102B800004E100E000E400E0001002400800014021
:102B9000000401400000FFF8FFFFF6FE0070004057
:102BA00000200240CD48008810F0200F13D0CC4800
:102BB000008840280FDAC948001D0088C949096803
:102BC000C74A12888854C6480088401CC4490880F7
:102BD0000A20C5490870C148008810F0800F21D034
:102BE000C2480068C249096888420DD2C1480068DD
:102BF000BE490968405CB949091D0880BB480068A6
:102C0000401CBA4908600DE0B4480C30008820F040
:102C10008000B2490C310880B048008820F04000A4
:102C2000AE490880704710B50346002002E00C5CF6
:102C30001C54401C9042FAD310BD70B503460C469C
:102C4000FF25FF2600220AE0985C80EA0501AA48D9
:102C5000405C80EA0605A948465C501CC2B2A2420C
:102C6000F2DB46EA052070BDF0B505460C46A01E15
:102C7000C1B22846FFF7E1FF0646601E295CA01E90
:102C8000285C41EA0027BE4201D10120F0BD0020AE
:102C9000FCE700209549086090480C30008840F01F
:102CA00080008E490C310880704730B58D4800682F
:102CB000C0788C490968897800EB012085B2894881
:102CC000006800788B490968087086480068407879
:102CD000884909684870834800684078032812D101
:102CE0008048006840794400824909688C708448B3
:102CF000411922467F480068C01CFFF794FF601D01
:102D00007B49086053E0774800684078062812D174
:102D10007B494819022273490968091DFFF783FF9F
:102D200008227048016873480068FFF77CFF08209C
:102D30006F4908603BE06B4800684078102815D167
:102D40006848006884796E494819224665490968CF
:102D5000C91DFFF768FF06226248016865480068E0
:102D6000FFF761FF08206249086020E05D480068C5
:102D7000407820281BD141205E49096888700120D5
:102D80005C490968C870F0205A4909680871002038
:102D90005849096848714FF496325A4955480068B5
:102DA000801DFFF740FF58485149086030BD50482A
:102DB0000068801EC1B24F480068FFF73EFF04461E
:102DC0004B480068401E4B4A126814542112484870
:102DD0000068801E474A1268115400BFE6E730B50C
:102DE00005463F480088C1B23E480068FFF73CFFF7
:102DF000044600203A490880FFF757FFFFF749FFD4
:102E000030BD2DE9F05F05460E46300107F03CF974
:102E100081463E4905FB01F007F036F982464946F6
:102E200007F038F80746384607F0F6F884B220462F
:102E300007F02AF98346394607F072FA82464FF0C6
:102E4000834107F069F9814607F0E6F880462401DE
:102E500004EB080084B22E48806940F004002C493D
:102E600088610846806940F480408861294800688C
:102E700020F47F60274908600846006840F40B6032
:102E800008602348C06840F480402149C860084673
:102E9000C06820F48040C860104808300480001DDD
:102EA000008842F20C0108430C490C3108800846A6
:102EB000008840F4807008800846008840F02000B8
:102EC00008800846008840F0800008800223252200
:102ED00003210846FFF70AFDBDE8F09F00380140D6
:102EE00098BD002090BD00208CBD0020A0BD00201A
:102EF0009CBD002094BD00200EA500080EA6000871
:102F000064BF002000000A68062C010040420F0048
:102F100000100240040801403748806940F0040076
:102F2000354988610846806940F04000886133482F
:102F3000006820F00F00314908600846006840F042
:102F4000080008602E4800682E4908402C49086097
:102F5000084600682C4908432949086028480C3075
:102F6000006840F01C0026490C310860704710B51D
:102F7000044614B10120254908702448007838B36C
:102F80002348006848B12348006830B122480068EF
:102F900018B12248006801281AD10A20FFF76FFCF7
:102FA00000201A4908701A48006808B9012010BDAD
:102FB0001848006808B90220F9E71748006808B9FE
:102FC0000320F4E715480068012813D10420EEE738
:102FD0000F48006801280DD10E480068012809D16A
:102FE0000D480068012805D10C48006810B901207F
:102FF000064908700020DAE700100240000801408E
:1030000000180140FF00F0FF00880800A4BD002068
:10301000100123420C0123420801234200012142F6
:1030200010B50A20FFF72BFC5148006838B9514809
:10303000006808B9012000E000204E4908604FF008
:1030400004004D49086010BD10B50A20FFF717FCB9
:103050004A48006838B94A48006808B9012000E0C9
:103060000020474908604FF008004349086010BD40
:1030700010B50A20FFF703FC4248006880B93D48BC
:10308000006808B9012000E000203A4908603E4885
:10309000D0F8940108B9012000E000203849086008
:1030A0004FF010003449086010BD10B5FFF734FF31
:1030B000022200210846FFF767FC012202210420BA
:1030C000FFF762FC012203210420FFF75DFC0122CF
:1030D00004210846FFF758FC022306220321184664
:1030E000FFF704FC0223082219461846FFF7FEFBEF
:1030F0000223092201211846FFF7F8FB02230A22C6
:1031000000211846FFF7F2FB10BD1B48006810F4C1
:10311000807F1AD01D480078022816DA1B480078F4
:1031200050B900201A4908604FF001001949C1F850
:1031300098011949086002E0002017490860134807
:10314000007800F10100114908704FF480700A49BD
:103150000860704710B5022208210020FFF714FC18
:103160000223172200210846FFF7C0FB10BD000014
:103170000801234294812142140401400C0123429E
:10318000940123421001234200002342A5BD0020E8
:1031900098812242008022428C81214245F2555280
:1031A000334B1A601A46506091604AF6AA221A60A0
:1031B0004CF6CC421A6070474AF6AA202C490860A7
:1031C000704770B506460C4615462A48C06940F45B
:1031D00000602849C86128480078304026490870B6
:1031E0002648006840EAC51024490860084600687F
:1031F0004FF6807108402149086008460068204366
:103200000860081F00681C49097808431B49091F0A
:1032100008600846006840F0800008600223002231
:1032200003211846FFF762FB00201449091D0860BE
:10323000081F006840F40070091F086070BD00F0AE
:103240007F010E4A121F1160704700B50A480078CE
:10325000FFF7F5FF00200949091D086008480068CC
:1032600008B9012000E000200549086000BD000009
:103270000030004000100240A6BD0020042C004099
:1032800094012342E248008810F0010F2AD0E1485F
:103290000078401CDF490870084600780A2806DBE1
:1032A00000200870DC480078401CDB490870DA48D0
:1032B00000780A2807DB0020D7490870D748007833
:1032C000401CD6490870D648007800280ADDD4484A
:1032D0000078401ED24908700846007810B90120D5
:1032E000D0490870CA48008820F00100C849088009
:1032F000704770B505460C46CB48C06940F00200E7
:10330000C949C861C2481C300580001F0480C048FC
:10331000001F008840F00100BD49091F0880BC481B
:103320001038008840F00100B949103908800223A4
:103330001D2203210120FFF7D9FA70BDBA4AD269D4
:1033400042F00202B84BDA611A46926942F0080272
:103350009A61B64A126822F47002B44B1A601A4697
:10336000126842F430021A60AF4A926942F00102D8
:10337000AD4B9A61AE4A526822F44062AC4B5A603F
:103380001A46526842F400625A60A14A1C32108008
:10339000121F11809E4A0832128842F4E0429C4B70
:1033A00008331A801A46128842F400621A80984A3A
:1033B0001032128842F01002954B10331A80DA1343
:1033C000934B103B1A801A46128842F001021A8071
:1033D000704770B504460D469348C06940F0080038
:1033E0009149C8610846806940F0040088619148AD
:1033F000006820F00F008F4908600846006840F020
:10340000080008608B480C3000688A490C3108605D
:1034100089480480001F058087481438008840F0E0
:10342000010085491439088008460088088008464C
:103430000088088080480C3800887F490C39088053
:103440000846008840F0010008807B48203800884A
:1034500040F002007849203908800846008840F092
:103460000100088074482C38008840F0010072493F
:103470002C3908800223322200211846FFF736FA41
:1034800070BD6D491C3908886C49097811F0800FAE
:103490004ED110F0010F1AD06849097811F0400F91
:1034A00015D06649097801F03F013F290AD16349E7
:1034B000097841F08001614A11704FF6FF71604A4E
:1034C000118004E05D490978491C5C4A117010F0D4
:1034D000020F2DD05949097811F0400F13D05749E8
:1034E000097841F08001554A117053490831098823
:1034F000534A118050490C39098821F002014E4A83
:103500000C3A118014E000214C4A11704C4A118091
:103510004A49097841F04001484A11700021464A61
:10352000083A1180111F098841F00201121F118011
:103530000021414A1C3A118070473B4AD26942F04F
:103540000402394BDA611A46926942F008029A6124
:10355000364A126822F07F42344B1A601A461268CB
:1035600042F096421A60374A1080121F1180354A85
:10357000143A128842F07002324B143B1A801A46F9
:10358000128842F008021A802E4A0C3A128842F041
:1035900002022C4B0C3B1A801A46128842F00102A0
:1035A0001A808022274B2C3B1A801A46128842F040
:1035B00001021A8070472448008A10F0010F02D0DF
:1035C0000020224908702048008A20F001001E498E
:1035D0000882704770B505460C461348C06940F034
:1035E00010001149C861184885850485808940F01C
:1035F0000100154988810846008840F001000880D4
:103600000223362203210120FFF770F970BD00006C
:1036100010040040A9BD0020AABD0020ABBD0020C1
:103620008CBD0020A8BD002000100240000C01400D
:1036300000000140000801402C0C0040ACBD0020FF
:10364000AEBD00202C08004000100040B0BD00209E
:10365000FB4908807047FA49891C08807047F84880
:10366000801C00887047F64A1080921C11807047B9
:1036700010B504462046FFF7EBFF0520FFF7E4F8FE
:10368000FFF7EDFF10BDEF48C079ED4908807047A6
:10369000EB49891C0880704730B5014601F01F04D2
:1036A000C1F34513CA0AE50205EB43151544A8B258
:1036B00030BD00BF0100A0F10102D0B2FAD17047C5
:1036C00010B503460C46DF488088A0F51341413908
:1036D00014D1DC49087AFFF7BBFF1812FFF7BBFFD4
:1036E000D8B2FFF7B8FFD749487AFFF7B1FF2012E9
:1036F000FFF7B1FFE0B2FFF7AEFF36E0D1488088B8
:10370000A0F5D04104391DD1CE488079012804D1DB
:10371000CC480088401EC01A83B2CA49087AFFF715
:1037200097FF1812FFF797FFD8B2FFF794FFC5492C
:10373000487AFFF78DFF2012FFF78DFFE0B2FFF709
:103740008AFF12E0BF488079012804D1BD48008873
:10375000401EC01A83B2BB49087A1946FFF783FF9F
:10376000B849487A2146FFF77EFF10BD2DE9F041A8
:1037700005460E4600240027A046B2480088A8420D
:1037800003DDB0484088B04202DC0020BDE8F08193
:1037900031462846FFF794FFAA488088A0F51341D8
:1037A000413905D0A7488088A0F5D041043903D11C
:1037B0002E20FFF74DFF02E02220FFF749FFA1482E
:1037C0008088A0F51341203902D10220FFF771FF54
:1037D0009B48801C008800B100240220FFF769FF8D
:1037E0009748801C048897488088A0F51341413988
:1037F00009D10220FFF75DFF9148801CB0F80080DE
:10380000E7B23F0208E08F488088A0F5D041043934
:1038100002D18B48801C04888A488088A0F5134117
:10382000253917D087488088A0F58A41353911D0CD
:1038300084488088A0F58A4131390BD0814880883E
:10384000A0F50941893905D07E488088A0F5354129
:10385000053901D1204699E77A488088A0F51341BF
:10386000413907D1E012C002B91240EA411040EAE2
:10387000E8208BE72046FFF70FFF87E700B5714888
:103880008088A0F51341413905D06E488088A0F5A5
:10389000D041043903D12920FFF7DAFE04E040F2D9
:1038A00073110720FFF7DFFE00BD00B56548808873
:1038B000A0F51341413905D062488088A0F5D04178
:1038C000043903D12820FFF7C3FE03E000210720BD
:1038D000FFF7C9FE00BD70B5044600230026594815
:1038E000807901281ED157488088A0F5D04104393D
:1038F00018D0082C15D2DFE804F00406080A0C0ED4
:10390000101206240DE007240BE0042409E005242E
:1039100007E0012405E0002403E0032401E0022481
:1039200000BF00BF47488088A0F51341413905D04A
:1039300044488088A0F5D04104397DD1082C1CD2A0
:10394000DFE804F00406090C0F12151800BF14E09C
:1039500043F0800311E043F040030EE043F0C00366
:103960000BE043F0200308E043F0600305E043F080
:10397000A00302E043F0E00300BF00BF362643F09F
:10398000080330488088A0F5D041043901D143F0C4
:10399000020319463046FFF766FE13F0200F03D1ED
:1039A0002848807901280DD1264800882549498872
:1039B000884214DA2348058840882249088008464E
:1039C00045800CE01F4800881E494988884206DD72
:1039D0001C48058840881B490880084645801949CD
:1039E000087AFFF735FE0020FFF735FE0020FFF7CD
:1039F00032FE14490988491EC1F30F20FFF72BFE40
:103A000010490988491EC8B2FFF725FE0D49487ABA
:103A1000FFF71EFE0020FFF71EFE0020FFF71BFE33
:103A200008494988491EC1F30F20FFF714FE0549D4
:103A30004988491EC8B200E006E0FFF70CFE35E0F9
:103A4000FE07006CA4CF0020082C1CD2DFE804F095
:103A500004070A0D0F12151843F0300313E043F06A
:103A6000100310E043F020030DE000BF0BE043F033
:103A7000380308E043F0280305E043F0180302E0B0
:103A800043F0080300BF00BFFE488088A0F509414D
:103A9000893904D1112646F24000034302E003268F
:103AA00043F4805319463046FFF7DDFD70BD30B555
:103AB00004460D4629462046FFF702FEFFF7E3FDC8
:103AC000F1480088F149088030BD30B503460C4606
:103AD0001546EC488088A0F51341413914D1E949D5
:103AE000087AFFF7B5FD1812FFF7B5FDD8B2FFF75A
:103AF000B2FDE449487AFFF7ABFD2012FFF7ABFDBA
:103B0000E0B2FFF7A8FD36E0DE488088A0F5D0419E
:103B100004391DD1DB488079012804D1D9480088B7
:103B2000401EC01A83B2D749087AFFF791FD1812D8
:103B3000FFF791FDD8B2FFF78EFDD249487AFFF723
:103B400087FD2012FFF787FDE0B2FFF784FD12E04A
:103B5000CC488079012804D1CA480088401EC01A88
:103B600083B2C849087A1946FFF77DFDC549487AEE
:103B70002146FFF778FDC348C079C449891E0880F3
:103B8000881C058030BD10B50446002C3DD1BD49D0
:103B90008871F02008804FF4A07048800846808823
:103BA000A0F51341413905D0B6488088A0F5D04131
:103BB000043914D12C20B349C8712A2008722B2053
:103BC000487208468088A0F5D04104395CD14FF492
:103BD000A070AC4908804FF4F070488054E0A948C8
:103BE0008088A0F50941893907D12220A549C871EB
:103BF0004E2008724F20487246E02220A149C87129
:103C000020200872212048723EE001209D498871E1
:103C10004FF4A0700880F020488008468088A0F506
:103C20001341413907D12C209649C8712A200872C6
:103C30002B20487228E093488088A0F5D0410439B1
:103C40000DD12C208F49C8712B2008722A20487270
:103C50004FF4F07008804FF4A070488014E0894859
:103C60008088A0F50941893907D122208549C8718A
:103C70004F2008724E20487206E022208149C87108
:103C800021200872202048720020FFF724FE10BD7A
:103C900070B5044600267B4805884088454379482E
:103CA0008088A0F5D041043916D176488079012862
:103CB00012D10020734988712A2008722B20487283
:103CC00000210846FFF7FCFC01206E4988712B207B
:103CD00008722A20487203E000210846FFF7F0FC32
:103CE000FFF7D1FC002602E068480480761CAE4253
:103CF000FAD370BD10B56648406940F480706449DD
:103D000048610846806940F008008861084680697B
:103D100040F0200088610846806940F040008861DA
:103D20000846806940F4807088615A48006820F035
:103D30000F00584908600846006840F0030008601A
:103D400055480068554908405349086008460068CE
:103D50005349084350490860081F006800F0FF20DD
:103D6000091F08600846006840F0BB1008604D4815
:103D7000006800204B4908600846006840F0BB30EE
:103D80000860081F006820F07040091F086008469E
:103D9000006840F0304008604348406820F47020DC
:103DA000414948600846406840F430204860084671
:103DB000006820F00F0008600846006840F00B0023
:103DC000086000204FF020418861C86137490860D1
:103DD0004FF02040806940F480504FF020418861CE
:103DE0000846806940F4804088610846806940F058
:103DF000100088610846C069C8610846C06940F083
:103E00000100C8610846C06940F47060C861274875
:103E10000068C1F81C0125480068C1F81C0108466B
:103E2000D0F81C0140F44070C1F81C0108468069BC
:103E300040F0010088614FF03200FEF720FD0121C3
:103E40000020FFF710FC3220FEF719FD0020FFF7DD
:103E50000FFC0C49888008468088FF280ADB08464A
:103E60008088A0F57F41FF3904D006488088B0F5EE
:103E7000134F5CD1D320FFF7EBFBFFF7F0FBFFF70D
:103E8000EEFB15E0A4CF0020B2BD00200008006CBE
:103E900000100240000C01400414014000F0FF003B
:103EA000BB0B00BB04180140002001401C0100A016
:103EB000FFF7D5FBFE498880084680880006000C85
:103EC0008880FFF7CCFBFA4989880843F849888045
:103ED00008468088A0F51341413918D0BF20FFF76C
:103EE000B7FBFFF7BCFBFFF7BAFBFFF7B8FBFFF729
:103EF000B6FBEF498880084680880006000C888061
:103F0000FFF7ADFBEA4989880843E9498880E8481A
:103F10008088A0F51341413909D0E5488088A0F593
:103F2000D041043903D049F24130E1498880E0486A
:103F30008088A0F5134141397ED1CF20FFF788FB5F
:103F40000020FFF788FBC120FFF785FB3020FFF73B
:103F500082FBED20FFF77CFB6420FFF77CFB032056
:103F6000FFF779FB1220FFF776FB8120FFF773FB49
:103F7000E820FFF76DFB8520FFF76DFB1020FFF7B2
:103F80006AFB7A20FFF767FBCB20FFF761FB392044
:103F9000FFF761FB2C20FFF75EFB0020FFF75BFBC8
:103FA0003420FFF758FB0220FFF755FBF720FFF7FF
:103FB0004FFB2020FFF74FFBEA20FFF749FB0020D3
:103FC000FFF749FB0020FFF746FBC020FFF740FB4F
:103FD0001B20FFF740FBC120FFF73AFB0120FFF752
:103FE0003AFBC520FFF734FB3020FFF734FB3020CD
:103FF000FFF731FBC720FFF72BFBB720FFF72BFBA9
:104000003620FFF725FB4820FFF725FB3A20FFF776
:104010001FFB5520FFF71FFBB120FFF719FB002006
:10402000FFF719FB1A20FFF716FBB620FFF710FB6E
:104030000A20FFF710FB00E097E0A220FFF70BFB40
:10404000F220FFF705FB0020FFF705FB2620FFF716
:10405000FFFA0120FFF7FFFAE020FFF7F9FA0F203F
:10406000FFF7F9FA2A20FFF7F6FA2820FFF7F3FA0C
:104070000820FFF7F0FA0E20FFF7EDFA0820FFF70F
:10408000EAFA5420FFF7E7FAA920FFF7E4FA432001
:10409000FFF7E1FA0A20FFF7DEFA0F20FFF7DBFA5D
:1040A0000020FFF7D8FA0020FFF7D5FA0020FFF72D
:1040B000D2FA0020FFF7CFFAE120FFF7C9FA00207B
:1040C000FFF7C9FA1520FFF7C6FA1720FFF7C3FA62
:1040D0000720FFF7C0FA1120FFF7BDFA0620FFF70F
:1040E000BAFA2B20FFF7B7FA5620FFF7B4FA3C20B4
:1040F000FFF7B1FA0520FFF7AEFA1020FFF7ABFA91
:104100000F20FFF7A8FA3F20FFF7A5FA3F20FFF79F
:10411000A2FA0F20FFF79FFA2B20FFF799FA002051
:10412000FFF799FA0020FFF796FA0120FFF793FABC
:104130003F20FFF790FA2A20FFF78AFA0020FFF7C6
:104140008AFA0020FFF787FA0020FFF784FAEF20B1
:10415000FFF781FA1120FFF77BFA7820FEF78FFB3B
:104160002920FFF775FA01F00FBA51488088A0F5B1
:10417000D04104397ED11120FFF76AFA1420FEF7EE
:104180007EFBD020FFF764FA0720FFF764FA422095
:10419000FFF761FA1D20FFF75EFAD120FFF758FA0A
:1041A0000020FFF758FA1A20FFF755FA0920FFF709
:1041B00052FAD220FFF74CFA0120FFF74CFA2220E6
:1041C000FFF749FAC020FFF743FA1020FFF743FA40
:1041D0003B20FFF740FA0020FFF73DFA0220FFF7EF
:1041E0003AFA1120FFF737FAC520FFF731FA03201A
:1041F000FFF731FAC820FFF72BFA0020FFF72BFA60
:104200002520FFF728FA2120FFF725FA0520FFF7E0
:1042100022FA0020FFF71FFA0A20FFF71CFA652098
:10422000FFF719FA2520FFF716FA7720FFF713FAA0
:104230005020FFF710FA0F20FFF70DFA0020FFF7CC
:104240000AFAF820FFF704FA0120FFF704FAFE202B
:10425000FFF7FEF90020FFF7FEF90220FFF7FBF958
:104260002020FFF7F5F93620FFF7F2F90820FFF7D5
:10427000F2F900E02DE03A20FFF7EAF95520FFF7C8
:10428000EAF92B20FFF7E4F90020FFF7E4F900201A
:10429000FFF7E1F90120FFF7DEF93F20FFF7DBF937
:1042A0002A20FFF7D5F90020FFF7D5F9002001E01B
:1042B000A4CF0020FFF7CFF90120FFF7CCF9DF20D2
:1042C000FFF7C9F97820FEF7DAFA2920FFF7C0F9DD
:1042D00049E7FE488088A0F5134125397ED147F68D
:1042E000F001E520FFF7BFF94FF480710120FFF7DF
:1042F000BAF94FF4E0610220FFF7B5F941F230015D
:104300000320FFF7B0F900210420FFF7ACF940F2D9
:1043100002210820FFF7A7F900210920FFF7A3F9E0
:1043200000210A20FFF79FF900210C20FFF79BF9DD
:1043300000210D20FFF797F900210F20FFF793F9D7
:1043400000211020FFF78FF907211120FFF78BF9CB
:1043500000211220FFF787F900211320FFF783F9CE
:1043600000210720FFF77FF941F290611020FFF74D
:104370007AF940F227211120FFF775F99D211220CB
:10438000FFF771F94FF4C8511320FFF76CF925219D
:104390002920FFF768F90D212B20FFF764F9072189
:1043A0003020FFF760F940F203313120FFF75BF96D
:1043B00003213220FFF757F940F206213520FFF79D
:1043C00052F908213620FFF74EF940F20641372016
:1043D000FFF749F94FF44171382000E057E0FFF74B
:1043E00042F907213920FFF73EF940F202613C20F3
:1043F000FFF739F908213D20FFF735F9002150205A
:10440000FFF731F9EF215120FFF72DF9002152205C
:10441000FFF729F940F23F115320FFF724F94FF439
:1044200027416020FFF71FF901216120FFF71BF9E9
:1044300000216A20FFF717F900218020FFF713F908
:1044400000218120FFF70FF900218220FFF70BF9EF
:1044500000218320FFF707F900218420FFF703F9EB
:1044600000218520FFF7FFF810219020FFF7FBF8CF
:104470004FF4C0619220FFF7F6F840F233110720A5
:10448000FFF7F1F822210020FFF7EDF86BE68F48E7
:104490008088A0F5134128397ED141F28F01EC20AC
:1044A000FFF7E1F841F23421EF20FFF7DCF84FF499
:1044B00080710120FFF7D7F84FF4E0610220FFF789
:1044C000D2F841F230010320FFF7CDF8002104209B
:1044D000FFF7C9F840F202210820FFF7C4F80021D5
:1044E0000920FFF7C0F800210A20FFF7BCF80121DE
:1044F0000C20FFF7B8F800210D20FFF7B4F80021D9
:104500000F20FFF7B0F800211020FFF7ACF80721CB
:104510001120FFF7A8F800211220FFF7A4F80021CE
:104520001320FFF7A0F801210720FFF79CF83220A5
:10453000FEF7A5F941F290411020FFF794F840F200
:1045400027211120FFF78FF83220FEF798F98A21F2
:104550001220FFF788F83220FEF791F94FF4D0517E
:104560001320FFF780F806212920FFF77CF80D21A2
:104570002B20FFF778F83220FEF781F90021202068
:10458000FFF771F800212120FFF76DF83220FEF7C8
:1045900076F90021302000E074E0FFF764F840F283
:1045A00004613120FFF75FF840F205313220FFF758
:1045B0005AF800213520FFF756F840F60941362019
:1045C000FFF751F84FF401713720FFF74CF840F234
:1045D00001313820FFF747F840F207713920FFF723
:1045E00042F800213C20FFF73EF840F60A213D202A
:1045F000FFF739F83220FEF742F900215020FFF78B
:1046000032F8EF215120FFF72EF800215220FFF75A
:104610002AF840F23F115320FFF725F84FF42741C5
:104620006020FFF720F801216120FFF71CF800212E
:104630006A20FFF718F800218020FFF714F8002106
:104640008120FFF710F800218220FFF70CF80021ED
:104650008320FFF708F800218420FFF704F80021E9
:104660008520FFF700F810219020FEF7FCFF4FF4A3
:10467000C0619220FEF7F7FF40F233110720FEF7EA
:10468000F2FF70E511488088A0F5134120397DD1F3
:104690000846FEF7E8FF4FF480710120FEF7E3FFC4
:1046A0004FF4E0610220FEF7DEFF41F2300103200B
:1046B000FEF7D9FF00210420FEF7D5FF40F20221CA
:1046C0000820FEF7D0FF0021092001E0A4CF002040
:1046D000FEF7C9FF00210A20FEF7C5FF01210C20CB
:1046E000FEF7C1FF00210D20FEF7BDFF00210F20C6
:1046F000FEF7B9FF3220FEF7C2F840F201110720A1
:10470000FEF7B1FF3220FEF7BAF84FF486511020C1
:10471000FEF7A9FF07211120FEF7A5FF4FF48871CE
:104720001220FEF7A0FF4FF430611320FEF79BFF2D
:1047300000212920FEF797FF44F210012B20FEF7FD
:1047400092FF00215020FEF78EFFEF215120FEF74F
:104750008AFF00215220FEF786FF40F23F115320CE
:10476000FEF781FF4FF41C516020FEF77CFF012112
:104770006120FEF778FF00216A20FEF774FF002118
:104780008020FEF770FF0021812000E030E0FEF77E
:104790006AFF00218220FEF766FF00218320FEF7DA
:1047A00062FF00218420FEF75EFF00218520FEF7D6
:1047B0005AFF10219020FEF756FF00219220FEF7AD
:1047C00052FF01219320FEF74EFF4FF48871952090
:1047D000FEF749FF00219720FEF745FF00219820B2
:1047E000FEF741FF40F273110720FEF73CFFBAE4E9
:1047F000FE488088A0F5134131397DD141F2140182
:10480000E720FEF730FF4FF480710120FEF72BFF09
:104810004FF400710220FEF726FF41F23801032019
:10482000FEF721FF40F202210820FEF71CFF0021C5
:104830000920FEF718FF00210A20FEF714FF0021CF
:104840000C20FEF710FF00210D20FEF70CFF0021C9
:104850000F20FEF708FF00211020FEF704FF0721BC
:104860001120FEF700FF00211220FEF7FCFE0021C0
:104870001320FEF7F8FEC820FEF701F841F2906120
:104880001020FEF7F0FE40F227211120FEF7EBFE8C
:104890003220FDF7F4FF0C211220FEF7E4FE322057
:1048A000FDF7EDFF4FF400611320FEF7DCFE112150
:1048B0002920FEF7D8FE0B212B20FEF7D4FE322054
:1048C000FDF7DDFF00212020FEF7CDFE40F23F1175
:1048D0002120FEF7C8FE00213020FEF7C4FE4FF471
:1048E00083713120FEF7BFFE00213220FEF7BBFEB0
:1048F0004FF40171352000E064E0FEF7B4FE41F2B0
:104900000A613620FEF7AFFE40F207713720FEF74E
:10491000AAFE4FF483713820FEF7A5FE40F207711E
:104920003920FEF7A0FE40F202413C20FEF79BFE3C
:1049300040F60F413D20FEF796FE00215020FEF785
:1049400092FEEF215120FEF78EFE00215220FEF74D
:104950008AFE40F23F115320FEF785FE4FF41C51B2
:104960006020FEF780FE01216120FEF77CFE002121
:104970006A20FEF778FE00218020FEF774FE0021F9
:104980008120FEF770FE00218220FEF76CFE0021E0
:104990008320FEF768FE00218420FEF764FE0021DC
:1049A0008520FEF760FE10219020FEF75CFE4FF49C
:1049B000C0619220FEF757FE40F233110720FEF748
:1049C00052FE85E489488088A0F5A84108397DD148
:1049D0004FF480710120FEF746FE4FF4E0610220A3
:1049E000FEF741FE41F230010320FEF73CFE0021BC
:1049F0000420FEF738FE40F207210820FEF733FEC0
:104A000000210920FEF72FFE00210A20FEF72BFED1
:104A100000210C20FEF727FE00210D20FEF723FECB
:104A200000210F20FEF71FFE1420FDF728FF41F2A2
:104A3000B0611020FEF717FE01211120FEF713FED2
:104A400001211720FEF70FFE4FF49C711220FEF794
:104A50000AFE4FF400611320FEF705FE092129200C
:104A6000FEF701FE09212A20FEF7FDFD0021A4200A
:104A7000FEF7F9FD00215020FEF7F5FDEF21512052
:104A8000FEF7F1FD00215220FEF7EDFD40F23F114F
:104A90005320FEF7E8FD4FF41C516020FEF7E3FDC4
:104AA00001216120FEF7DFFD00216A20FEF7DBFD1A
:104AB00000218020FEF7D7FD00218120FEF7D3FDE5
:104AC00000218220FEF7CFFD002100E024E08320BA
:104AD000FEF7C9FD00218420FEF7C5FD00218520D9
:104AE000FEF7C1FD13219020FEF7BDFD00219220AD
:104AF000FEF7B9FD03219320FEF7B5FD4FF4887151
:104B00009520FEF7B0FD40F273110720FEF7ABFDD4
:104B10003220FDF7B4FEB9E434488088A0F5A851EE
:104B2000053965D10720FEF79EFD3220FDF7A7FE6F
:104B30004FF48E711220FEF796FD0121A420FEF79E
:104B400092FD0F210820FEF78EFD08210A20FEF7B6
:104B50008AFD08210D20FEF786FD40F20771302006
:104B6000FEF781FD07213120FEF77DFD40F2036154
:104B70003220FEF778FD4FF4E0613320FEF773FD3D
:104B800040F202213420FEF76EFD02213520FEF7AF
:104B90006AFD41F60F713620FEF765FD40F20771A0
:104BA0003720FEF760FD00213820FEF75CFD002174
:104BB0003920FEF758FD40F207713A20FEF753FD09
:104BC00000213B20FEF74FFD07213C20FEF74BFD67
:104BD00000213D20FEF747FD3220FDF750FE012168
:104BE0000720FEF740FD0121172002E0A4CF00209E
:104BF000AEE0FEF738FD3220FDF741FE4FF4BD5127
:104C00001020FEF730FD40F217211120FEF72BFD9A
:104C10004FF48F711220FEF726FD4FF470611320C0
:104C2000FEF721FD00212A20FEF71DFD0A21292083
:104C3000FEF719FD4FF49F711220FEF714FD0021BD
:104C40005020FEF710FDEF215120FEF70CFD002152
:104C50005220FEF708FD40F23F115320FEF703FDFE
:104C60004FF41C516020FEF7FEFC01216120FEF78D
:104C7000FAFC00216A20FEF7F6FC00218020FEF7F6
:104C8000F2FC00218120FEF7EEFC00218220FEF7DD
:104C9000EAFC00218320FEF7E6FC00218420FEF7D9
:104CA000E2FC00218520FEF7DEFC13219020FEF7B8
:104CB000DAFC4FF440719220FEF7D5FC05219320D9
:104CC000FEF7D1FC00219520FEF7CDFC00219720B6
:104CD000FEF7C9FC00219820FEF7C5FC4FF4807157
:104CE0000120FEF7C0FC4FF4E0610220FEF7BBFCA0
:104CF00041F238010320FEF7B6FC00210420FEF744
:104D0000B2FC00210C20FEF7AEFC00210F20FEF7C4
:104D1000AAFC00212020FEF7A6FC00212120FEF79E
:104D2000A2FC21210720FEF79EFC1420FDF7A7FD21
:104D300061210720FEF797FC1420FDF7A0FD40F24B
:104D400073110720FEF78FFC1420FDF798FD98E4FF
:104D5000FE488088A0F5354105397DD10846FEF72B
:104D600082FC00210846FEF77EFC00210846FEF783
:104D70007AFC00210846FEF776FC0121A420FEF70C
:104D800072FC1420FDF77BFD4FF41C516020FEF7F0
:104D90006AFC40F202210820FEF765FC4FF4057121
:104DA0003020FEF760FC43F215713120FEF75BFC0A
:104DB00040F204613220FEF756FC40F616613320C3
:104DC000FEF751FC42F211213420FEF74CFC4FF467
:104DD000A8513520FEF747FC48F207513620FEF770
:104DE00042FC41F207413720FEF73DFC41F203410E
:104DF0003820FEF738FC20213920FEF734FC1A2138
:104E00009020FEF730FC00211020FEF72CFC07213B
:104E10001120FEF728FC00211220FEF724FC0021BF
:104E20001320FEF720FC1420FDF729FD4FF4E66166
:104E30001020FEF718FC40F237111120FEF713FC8A
:104E40001420FDF71CFD4FF4DC711220FEF70BFC63
:104E50001420FDF714FD00E083E04FF4706113208F
:104E6000FEF701FC80212A20FEF7FDFB48212920C6
:104E7000FEF7F9FB1420FDF702FD4FF480710120CD
:104E8000FEF7F1FB4FF4E0610220FEF7ECFB41F28C
:104E900038010320FEF7E7FB40F202210820FEF76D
:104EA000E2FB00210A20FEF7DEFB00210C20FEF7CA
:104EB000DAFB00210D20FEF7D6FB30210E20FEF795
:104EC000D2FB00215020FEF7CEFBEF215120FEF750
:104ED000CAFB00215220FEF7C6FB40F23F115320CF
:104EE000FEF7C1FB4FF41C516020FEF7BCFB012113
:104EF0006120FEF7B8FB00216A20FEF7B4FB112108
:104F00009020FEF7B0FB4FF4C0619220FEF7ABFBA0
:104F100040F202419320FEF7A6FB02219420FEF707
:104F2000A2FB1420FDF7ABFC01210720FEF79BFB41
:104F30001420FDF7A4FC61210720FEF794FB40F24A
:104F400073110720FEF78FFB00212020FEF78BFB5B
:104F500000212120FEF787FB22210020FEF783FBA2
:104F600012E37A488088A0F5454105397DD108468D
:104F7000FEF779FB00210846FEF775FB1420FDF7CC
:104F80007EFC00210846FEF76EFB00210846FEF776
:104F90006AFB00210846FEF766FB00210846FEF783
:104FA00062FB0121A420FEF75EFB1420FDF767FCE5
:104FB0004FF41C516020FEF756FB40F60601082016
:104FC000FEF751FB40F203713020FEF74CFB01214C
:104FD0003120FEF748FB04213220FEF744FB4FF45A
:104FE00081713320FEF73FFB4FF440713420FEF710
:104FF0003AFB40F203113520FEF735FB1F21362026
:10500000FEF731FB40F203713720FEF72CFB012144
:105010003820FEF728FB04213920FEF724FB152158
:105020009020FEF720FB4FF482611020FEF71BFB5F
:1050300040F247211120FEF716FB4FF4DE711220DB
:10504000FEF711FB4FF460611320FEF70CFB782094
:10505000FDF715FC4FF480710120FEF704FB4FF4BF
:1050600000710220FEF7FFFA00E050E041F230014B
:105070000320FEF7F8FA08210A20FEF7F4FA0021CF
:105080000C20FEF7F0FA20210E20FEF7ECFA0021AA
:105090000F20FEF7E8FA00212020FEF7E4FA0021B5
:1050A0002120FEF7E0FA3D212A20FEF7DCFA142049
:1050B000FDF7E5FB2D212920FEF7D5FA0021502030
:1050C000FEF7D1FA4DF2EF015120FEF7CCFA0021A4
:1050D0005220FEF7C8FA40F23F115320FEF7C3FA00
:1050E00000216120FEF7BFFA00216A20FEF7BBFA1B
:1050F0004FF440719220FEF7B6FA05219320FEF797
:10510000B2FA4FF480710720FEF7ADFA3CE20F4887
:105110008088A0F5094189397ED101210020FEF760
:10512000A2FA4AF6A4010320FEF79DFA00210C2002
:10513000FEF799FA40F60C010D20FEF794FA4FF4B1
:105140002C510E20FEF78FFAB02101E0A4CF0020F1
:105150001E20FEF788FA42F63F310120FEF783FA5F
:105160004FF4C0610220FEF77EFA00211020FEF706
:105170007AFA46F278011120FEF775FA002105202F
:10518000FEF771FA00210620FEF76DFA4EF61C714B
:105190001620FEF768FA03211720FEF764FA40F2A2
:1051A00033210720FEF75FFA00210B20FEF75BFAA0
:1051B00000210F20FEF757FA00214120FEF753FA95
:1051C00000214220FEF74FFA00214820FEF74BFA5B
:1051D00040F23F114920FEF746FA00214A20FEF72F
:1051E00042FA00214B20FEF73EFA4FF46F41442073
:1051F000FEF739FA00214520FEF735FA40F23F115B
:105200004620FEF730FA40F207713020FEF72BFA05
:105210004FF40171312000E03FE0FEF724FA4FF433
:1052200001713220FEF71FFA40F202513320FEF7DF
:105230001AFA40F207513420FEF715FA4FF40171C3
:105240003520FEF710FA4FF401713620FEF70BFA05
:1052500040F202513720FEF706FA40F202313A20BE
:10526000FEF701FA40F202313B20FEF7FCF9002183
:105270002320FEF7F8F900212420FEF7F4F94FF47B
:1052800000412520FEF7EFF900214F20FEF7EBF952
:1052900000214E20FEF7E7F976E1F7488088A0F577
:1052A0008A4131397ED101210020FEF7DCF90A2044
:1052B000FDF7E5FA41F228611020FEF7D4F90E213E
:1052C0001220FEF7D0F940F639211320FEF7CBF972
:1052D0000A20FDF7D4FA40211120FEF7C4F950212D
:1052E0001520FEF7C0F90A20FDF7C9FA1E21122089
:1052F000FEF7B9F90A20FDF7C2FA4FF4B1511020B8
:10530000FEF7B1F942F639211320FEF7ACF90A2075
:10531000FDF7B5FA4FF480710120FEF7A4F94FF4C0
:1053200040710220FEF79FF941F238010320FEF799
:105330009AF940F202210820FEF795F908210A2087
:10534000FEF791F900213020FEF78DF940F202417D
:105350003120FEF788F94FF483713220FEF783F98C
:1053600040F203513320FEF77EF94FF4827134206E
:10537000FEF779F940F201313520FEF774F940F279
:1053800007713620FEF76FF940F205313720FEF73E
:105390006AF94FF402713820FEF765F940F60B7197
:1053A000392000E03BE0FEF75EF902214120FEF7E4
:1053B0005AF94FF41C516020FEF755F90121612084
:1053C000FEF751F94FF404719020FEF74CF94FF4B9
:1053D00085719220FEF747F904219320FEF743F9E7
:1053E0004FF48071A020FEF73EF901210720FEF75F
:1053F0003AF921210720FEF736F923210720FEF78D
:1054000032F933210720FEF72EF940F2331107203D
:10541000FEF729F90021A020FEF725F9B4E096480F
:105420008088A0F58A413539F8D130211520FEF762
:105430001AF910219A20FEF716F920211120FEF703
:1054400012F943F228411020FEF70DF90221122033
:10545000FEF709F941F238011320FEF704F928207C
:10546000FDF70DFA12210846FEF7FDF82820FDF79A
:1054700006FA43F220411020FEF7F5F843F2380116
:105480001320FEF7F0F84620FDF7F9F9002130204F
:10549000FEF7E9F840F202413120FEF7E4F840F26D
:1054A00007313220FEF7DFF84FF441713320FEF769
:1054B000DAF804213420FEF7D6F840F20141352015
:1054C000FEF7D1F840F207713620FEF7CCF840F233
:1054D00005313720FEF7C7F84FF4C2613820FEF7D8
:1054E000C2F84FF4C2613920FEF7BDF84FF4807165
:1054F0000120FEF7B8F84FF440710220FEF7B3F830
:1055000041F230010320FEF7AEF840F60801082012
:10551000FEF7A9F808210A20FEF7A5F84FF41C5160
:105520006020FEF7A0F801216120FEF79CF84FF4FF
:105530009F719020FEF797F84FF480719220FEF74C
:1055400092F84FF480719320FEF78DF84FF440519C
:10555000A020FEF788F81021A320FEF784F801218F
:105560000720FEF780F821210720FEF77CF8232191
:105570000720FEF778F833210720FEF774F840F291
:1055800033110720FEF76FF80020FEF7FCFA012028
:105590003A4908604FF6FF70FEF77AFB10BD2DE91F
:1055A000FC4F05460E4617469846DDF82C90002025
:1055B000019031488088A0F5D041043929D12E4886
:1055C0008079012825D1AB4635462B480088C01B81
:1055D000401E86B2474628480088A0EB0B00401EBC
:1055E0001FFA80F80020244988712A2008722B2095
:1055F000487243463A4631462846CDF80090FFF7B8
:10560000CEFF01201C4988712B2008722A20487285
:105610001CE0781B401C80B20190344614E0214607
:105620002846FEF74DF8FEF72EF84FF0000A06E088
:105630004846FEF710F80AF101001FFA80FA0198B7
:105640008245F5DB601C84B24445E8DDBDE8FC8F93
:105650002DE9F84F07460D4690469946DDF828B0EB
:10566000A8EB0700401C80B20090A9EB0500401C8D
:105670001FFA80FA002419E0A4CF00208081214283
:10568000281981B23846FEF71BF8FDF7FCFF00260B
:1056900007E004FB0A603BF81000FE490880701C1C
:1056A00086B200988642F4DB601C84B25445E7DB86
:1056B000BDE8F88F2DE9FF4F84B081468A4600206F
:1056C000039002900698A0EB09050798A0EB0A0644
:1056D000CDF80490CDF800A0002D01DD012705E0F4
:1056E0000DB9002702E04FF0FF376D42002E02DDBA
:1056F0004FF0010806E016B94FF0000802E04FF045
:10570000FF387642B54201DD2C4600E034464FF0CA
:10571000000B21E0009881B2019880B2FEF7C7F932
:105720000398284403900298304402900398A042C2
:1057300005DD0398001B03900198384401900298FE
:10574000A04205DD0298001B0290009840440090A2
:105750000BF101001FFA80FB601C8345DADD08B005
:10576000BDE8F08FF0B504460D4616461F462B46A1
:10577000324629462046FFF79DFF3B4622462946F2
:105780002046FFF797FF3B46324639462046FFF753
:1057900091FF3B46324629463046FFF78BFFF0BD6E
:1057A0002DE9F04306460F46904600244546032067
:1057B000A0EB48093CE07A1B91B2321990B2FEF797
:1057C00076F93A1B91B2721990B2FEF770F93A1954
:1057D00091B2721990B2FEF76AF97A1991B2321940
:1057E00090B2FEF764F97A1991B2321B90B2FEF7CB
:1057F0005EF93A1991B2721B90B2FEF758F97A1B12
:1058000091B2321B90B2FEF752F93A1B91B2721B61
:1058100090B2FEF74CF9641CB9F1000F03DAA00056
:10582000801D814404E0601B80000A3081446D1EAD
:10583000AC42C0DDBDE8F0832DE9F84F05460F46C8
:1058400090461E4600979448B0F80090A8F12000BA
:1058500000F0FF080A9800284ED1002449E00C2EE1
:1058600007D108EB48008D4901EB800010F804A037
:1058700004E08B4800EB081010F804A04FF0000B78
:1058800031E01AF0800F03D08348A0F8009003E0C5
:10589000844800888049088039462846FEF707F981
:1058A0004FEA4A604FEA106A781C87B27E48008847
:1058B000A84204DC7848A0F80090BDE8F88F009872
:1058C000381AB0420BD1009F681C85B27648008818
:1058D000A84203DC7048A0F80090EEE706E00BF168
:1058E000010000F0FF0BBBF1080FCADB00BF601C1A
:1058F000C4B2B442B3DB44E0002440E00C2E07D134
:1059000008EB4800654901EB800010F804A004E0B2
:10591000634800EB081010F804A04FF0000B28E0DB
:105920001AF0800F03D039462846FEF7C0F84FEA38
:105930004A604FEA106A781C87B25B484088A842E8
:1059400003DC5548A0F80090B7E70098381AB04239
:105950000BD1009F681C85B253480088A84203DC25
:105960004D48A0F80090A8E706E00BF1010000F018
:10597000FF0BBBF1080FD3DB00BF601CC4B2B44205
:10598000BCDB4548A0F8009000BF96E710B5024682
:10599000012000E050430B00A1F10104E1B2F9D174
:1059A00010BD2DE9FF4F81B0074691461E460E9D62
:1059B0004FF0000A002439E0301B401EC1B20A201B
:1059C000FFF7E4FFB9FBF0F00A21B0FBF1F201FBB5
:1059D0001208BAF1000F16D1701EA04213DDB8F103
:1059E000000F0ED10020AB4605EBDB71491001FB27
:1059F0000471009088B22B4620220299FFF71CFF09
:105A000012E04FF0010A0020AB4605EBDB714910B4
:105A100001FB0471009088B22B4608F13001CAB234
:105A20000299FFF709FF00BF601CC4B2B442C3DB98
:105A300005B0BDE8F08F2DE9FF4F82B006469246D3
:105A40001F46DDE90F480020019000255BE0781B30
:105A5000401EC1B20A20FFF799FFBAFBF0F00A21FD
:105A6000B0FBF1F201FB12090198A8BB781EA84215
:105A700035DDB9F1000F30D118F0800F1CD008F0DF
:105A80000100A34604EBDB71491001FB05610090A6
:105A900088B20BE00008006CB2BD00200EA7000821
:105AA00082AB0008B4BD0020A4CF002023463022E2
:105AB0000399FFF7C1FE0EE008F00100A34604EBD6
:105AC000DB71491001FB0561009088B2234620225A
:105AD0000399FFF7B1FE14E001E00120019008F006
